:1000000065C000000C9481100C94AE1087C00000F5
:1000100085C0000083C0000081C000000C94FA0F6E
:100020007DC000007BC0000079C0000077C00000E8
:1000300075C0000073C0000071C000006FC00000F8
:100040000C94E1106BC000000C94C60C67C000005B
:1000500065C0000063C0000061C000005FC0000018
:100060005DC000005BC0000000000000240027000D
:100070002A0000000000250028002B0000000000DE
:1000800023002600290004040404040404040202DA
:100090000202020203030303030301020408102007
:1000A0004080010204081020010204081020000012
:1000B0000007000201000003040600000000000029
:1000C00000008F002802A008D8085C0E11241FBE73
:1000D000CFEFD8E0DEBFCDBF11E0A0E0B1E0E2EAB3
:1000E000F6E202C005900D92A23DB107D9F716E0E5
:1000F000A2EDB1E001C01D92AB31B107E1F710E014
:10010000CCECD0E004C02297FE010E943513C23C23
:10011000D107C9F70E94DB100C944F1371CF82ED09
:1001200091E04CE251E060E070E00C944E0B809165
:100130002F0161E00E94E7118091300161E00E948F
:10014000E7118091310161E00E94E7118091320155
:1001500061E00C94E711FF920F931F93182FE82F83
:10016000F0E0E25DFE4FF08000E015C00E94BE08A6
:100170008117E9F082ED91E00E945F0B8823B9F4CA
:10018000F5CFFCD78117E1F082ED91E00E945F0B83
:100190008823B1F4F6CFF2D78117A9F08F2D61E053
:1001A0000E940D1282ED91E00E94300BDFCF8F2D67
:1001B00060E00E940D1282ED91E00E94300BE1CFD1
:1001C0000F5F033041F71F910F91FF900895DC01FD
:1001D0008FE76F3F780709F450C059968C91599773
:1001E0008A3031F557964C915797E42FF0E03D96C1
:1001F000EE0FFF1FEA0FFB1F9E968D919C919F971C
:1002000020813181821B930B9F969C938E939E97A6
:100210004F5F57964C9357974A3019F457961C9254
:10022000579759968C915997815059968C93599715
:100230009E968D919C919F97860F971F9F969C935A
:100240008E939E9758968C915897E82FF0E03D96A4
:10025000EE0FFF1FEA0FFB1F718360838F5F5896BD
:100260008C9358978A3019F458961C92589759963F
:100270008C9159978F5F59968C9308950F931F9384
:10028000182F092F0E947F0C882351F0812F902F67
:100290000E947C0C812F902F64E440E00E943D0C72
:1002A0001F910F910895EADF68EE73E080E090E01F
:1002B0000C945D11FF920F931F93082FF92E0E944B
:1002C0007F0C882319F42FEF3FE717C0802F9F2D55
:1002D0000E947C0C802F9F2D6EEB40E00E943D0C15
:1002E000802F9F2D0E94F00B182F802F9F2D0E9492
:1002F000F00B382F20E0210F311DC9011F910F9104
:10030000FF900895CF93DF93EC010E960E945F0B50
:10031000882339F0CE01CEDFBC01CE0158DFCE01FB
:10032000ADDFDF91CF9108950F931F938C010E9451
:10033000A50BC8010E9648EE53E060E070E021E0A6
:100340000E943C0BF801178A108E118E17A616A674
:100350001F910F9108950F931F9304EF15E0C801AB
:1003600060E071E00E94CD0EB1D6682FC8014AE06E
:1003700050E00E94760FC80165E071E00E94CD0E4A
:10038000A1D6682FC8014AE050E00E94760FC8014C
:1003900068E071E00E94CD0E91D6682FC8014AE056
:1003A00050E00E94760FC8016BE071E00E94CD0E14
:1003B00081D6682FC8014AE050E00E94760FC8013C
:1003C0006EE071E00E94CD0E71D6682FC8014AE040
:1003D00050E00E94760FC80161E171E00E94D00FE9
:1003E0001F910F9108951F93FC01118D112319F492
:1003F0002FEF3FE719C066A577A5882777FD809581
:10040000982F24E630E040E050E00E94B012212F07
:1004100030E044E0220F331F4A95E1F7442737FDCF
:100420004095542F0E940413C9011F9108959C0107
:10043000181619061CF08BEF9FEF02C085E090E0C4
:10044000820F931F6AE070E00E94CF12CB010895E3
:100450008BED91E060E168DF8AEF94E048E95AE3D0
:1004600060E070E021E00E943C0B83E095E048E80A
:1004700053E160E070E00E944E0B80E003C0EA337D
:1004800049F08F5FE82FF0E0EC5CFE4FE081EE2357
:10049000B1F780E08F5F80930C0580E003C0E33705
:1004A00049F08F5FE82FF0E0EC5CFE4FE081EE2337
:1004B000B1F780E08F5F80930D0580E003C0EA32E2
:1004C00049F08F5FE82FF0E0EC5CFE4FE081EE2317
:1004D000B1F780E080930E0590E003C0EB3249F065
:1004E0009F5FE92FF0E0EC5CFE4FE081EE23B1F777
:1004F00090E090930F05892F03C0E03249F08F5FA1
:10050000E82FF0E0EC5CFE4FE081EE23B1F780E0F5
:10051000891B8093100580E003C0E43649F08F5FAB
:10052000E82FF0E0EC5CFE4FE081EE23B1F780E0D5
:10053000982F9F5F90931105892F03C0E03249F0F7
:100540008F5FE82FF0E0EC5CFE4FE081EE23B1F727
:1005500080E0891B8093120580E003C0E03749F0FA
:100560008F5FE82FF0E0EC5CFE4FE081EE23B1F707
:1005700080E0982F9F5F90931305892F03C0E0328E
:1005800049F08F5FE82FF0E0EC5CFE4FE081EE2356
:10059000B1F780E0891B8093140580E003C0E13748
:1005A00049F08F5FE82FF0E0EC5CFE4FE081EE2336
:1005B000B1F780E0982F9F5F90931505892F03C0B6
:1005C000E03249F08F5FE82FF0E0EC5CFE4FE08115
:1005D000EE23B1F780E0891B8093160580E003C00D
:1005E000E73749F08F5FE82FF0E0EC5CFE4FE081E9
:1005F000EE23B1F780E0982F9F5F90931705892F26
:1006000003C0E03249F08F5FE82FF0E0EC5CFE4F72
:10061000E081EE23B1F780E0891B8093180580E02C
:1006200003C0E93649F08F5FE82FF0E0EC5CFE4F45
:10063000E081EE23B1F780E0982F9F5F909319053A
:10064000892F03C0ED3249F08F5FE82FF0E0EC5CBA
:10065000FE4FE081EE23B1F780E0891B80931A05FD
:10066000890F80931B05982F03C0E03249F09F5FEC
:10067000E92FF0E0EC5CFE4FE081EE23B1F790E073
:10068000981B90931C0580E003C0E13649F08F5F12
:10069000E82FF0E0EC5CFE4FE081EE23B1F780E064
:1006A000982F9F5F90931D05892F03C0EB3249F06F
:1006B0008F5FE82FF0E0EC5CFE4FE081EE23B1F7B6
:1006C00080E0891B80931E05890F80931F05982F5A
:1006D00003C0E03249F09F5FE92FF0E0EC5CFE4F91
:1006E000E081EE23B1F790E0981B9093200580E025
:1006F00003C0E53749F08F5FE82FF0E0EC5CFE4F78
:10070000E081EE23B1F780E0982F9F5F9093210561
:10071000892F03C0ED3549F08F5FE82FF0E0EC5CE6
:10072000FE4FE081EE23B1F780E0891B8093220524
:1007300089E295E040ED57E060E070E0AFD783E3F9
:1007400095E048EE53E060E070E021E095C79F92AD
:10075000AF92BF92CF92DF92EF92FF920F931F93CF
:10076000CF93DF930E942911C62EB72EA82E992E63
:1007700075D5D82E8BED91E036DEEC012FE78F3F5B
:10078000920709F482C0EC2CFB2C0A2D192DDD20D8
:1007900011F0DD24D39480911F02882379F4DD20A9
:1007A000A1F5E0920B02F0920C0200930D0210935F
:1007B0000E02D0931002C0930F0202C0DD2029F573
:1007C00080910B0290910C02A0910D02B0910E024B
:1007D000A8019701281B390B4A0B5B0BCA01B90111
:1007E00020E63AEE40E050E00E94041330931202FB
:1007F0002093110280910F0290911002AE01481BCC
:10080000590B5093140240931302809120028823C5
:1008100079F4DD2089F1E0921502F092160200933E
:10082000170210931802D0931A02C093190202C043
:10083000DD2011F18091150290911602A09117020E
:10084000B0911802E81AF90A0A0B1B0BC801B7018C
:1008500020E63AEE40E050E00E94041330931C0280
:1008600020931B028091190290911A02C81BD90B88
:10087000D0931E02C0931D0210921F02DD2019F4B6
:1008800081E080931F02D0922002DF91CF911F91CF
:100890000F91FF90EF90DF90CF90BF90AF909F901F
:1008A0000895E091B801E33051F0F0E0E458FE4FD4
:1008B00010828CE791E053D483E08093B8010895CF
:1008C00047D484E191E04BD48BED91E0ECDC2FD563
:1008D0002EDC41CD1F9352D4182F882329F0F6D354
:1008E000181711F0812FDDD31F9108950F931F93D7
:1008F000CF93DF93082FEB01142F8091B80190E084
:10090000C5970CF0CEDF6091B801E62FF0E0E45817
:10091000FE4F00836F5F6093B80170E064587E4FB4
:100920001066CE0146E0212FBDD59091B801980FF9
:100930009093B801DF91CF911F910F910895FF928D
:100940000F931F938B01F42E72DD0C5C1E4FB801C8
:100950004F2D21E1A7D51F910F91FF9008958F9200
:100960009F92AF92BF92CF92DF92EF92FF920F933E
:100970001F93982EF89402D4182F53D47894E091B2
:100980000C05F0E0EC5CFE4F105D108390910D05BE
:10099000E92FF0E0EC5CFE4F20E030E0482F50E023
:1009A000CA01022E02C0959587950A94E2F78170DC
:1009B000805D81932F5F3F4F2730310589F78BEDA5
:1009C00091E011DD2FE78F3F920739F060910F051D
:1009D0004091100570E050E0B2DF6091110570E0C9
:1009E0006C5C7E4F8091F8049091F904409112055F
:1009F00022E158D56091170570E06C5C7E4F8091C4
:100A0000F6049091F7044091180520E04BD56091D1
:100A1000190570E06C5C7E4F80911102909112027A
:100A200040911A0520E03ED560911B0540911C05C0
:100A3000809113029091140270E050E080DF609189
:100A40001D0570E06C5C7E4F80911B0290911C0232
:100A500040911E0520E026D560911F05409120059C
:100A600080911D0290911E0270E050E068DF4DD32E
:100A70006091130570E06C5C7E4F4091140521E09D
:100A800011D528D36091150570E06C5C7E4F4091C4
:100A9000160521E007D50E9429117B018C01609188
:100AA0002705709128052091230530912405409158
:100AB000250550912605D801C701821B930BA40B75
:100AC000B50B04C080509C45A642B540B62EA72E5B
:100AD000822EF32FD42EC52E6F5F7F4F2050344AC5
:100AE000494D5A4F8130ECE59E07E6E2AE07E5E05E
:100AF000BE0744F7B0922705A092280580922305EF
:100B0000F0932405D0922505C09226056091210519
:100B100070E06C5C7E4F4091220546508B2D9A2DE3
:100B200020E0C0D48091230590912405A091250553
:100B3000B0912605E81AF90A0A0B1B0BC801B70188
:100B400028EE33E040E050E00E940413122F032F00
:100B5000F42EE52E622F732F842F952F2CE330E097
:100B600040E050E00E940413DC01CB0120912105FC
:100B70006091220570E0620F711D6E5C7E4F42E055
:100B800020E090D4612F702F8F2D9E2D2CE330E02C
:100B900040E050E00E940413122F032FF42EE52EA4
:100BA000622F732F842F952F2CE330E040E050E02C
:100BB0000E940413DC01CB012091210560912205E4
:100BC00070E0620F711D605D7E4F42E020E06AD4EC
:100BD000612F702F8F2D9E2D2CE330E040E050E0F0
:100BE0000E940413DA01C9012091210560912205B8
:100BF00070E0620F711D625D7E4F42E020E052D4D2
:100C000080910E05992011F4E82F12C0E82FF0E032
:100C1000EC5CFE4F9082982F9F5F2AE2921639F08B
:100C2000E92FF0E0EC5CFE4F8AE280839F5FE92FC2
:100C3000F0E0EC5CFE4F108284E391E090D283E020
:100C400095E00ED5109233011F910F91FF90EF9018
:100C5000DF90CF90BF90AF909F908F900895813399
:100C600078F0853340F08F3319F0833449F402C0B3
:100C70008FE375CE70CB80536EDA2CDE83E66FCEB9
:100C80000895DF92EF92FF920F931F93CF93DF931C
:100C90008BED91E037DB5BDDEAD2882311F089E64A
:100CA0005EDE6CD2082F12D2002369F0081759F0CB
:100CB000833031F4013021F44EDA0CDE82E702C0D9
:100CC00009DE82E64CDE5AD2082FFCD1D82E8823CA
:100CD00001F10430F1F40E9429117B018C0184E0C0
:100CE00050D2E61AF70A080B190B6D2D70E080E060
:100CF00090E020E63AEE40E050E00E94B0126E151F
:100D00007F05800791072CF481E025DAE3DD88E692
:100D100026DE8BED91E067DB7C012FE78F3F9207AA
:100D200009F47CC08AEF94E0CAD4882309F476C021
:100D300095D2282F811121E08091F4049091F5043F
:100D4000820F911D9093F5048093F4048091F30435
:100D50008F5F8093F3048091F20490E08C01000F88
:100D6000111F080F191F0F5D1D4FF80120838BED18
:100D700091E039DBF80192838183C091F404D09132
:100D8000F5040091F3048CE390E09C01C29FC00144
:100D9000C39F900DD29F900D1124602F70E00E9490
:100DA000CF127093F7046093F6044091F104242F5E
:100DB00030E0F901EE0FFF1FE20FF31FEF5DFD4F73
:100DC00081819281E81AF90AF092F904E092F8041C
:100DD0008091F2048F5F8093F204803F11F41092AF
:100DE000F2048091F2048417C9F4F901EE0FFF1F99
:100DF000E20FF31FEF5DFD4F8081C81BD109D09337
:100E0000F504C093F404842F8F5F8093F104803F36
:100E100011F41092F10401500093F30483E095E083
:100E20004ED4882329F08091330181118AE297DD25
:100E300089E295E044D4882309F441C08BED91E028
:100E4000D2DA3FE78F3F930729F0F1DABC0181E660
:100E500041E14CDD6091F8047091F90482E642E1D1
:100E600045DD6091F6047091F70483E640E03EDDD5
:100E700085D1682F84E670E040E038DD91D1682F9D
:100E800085E670E040E032DDE9D1682F86E670E06B
:100E900040E02CDD3AD1BC0187E641E027DD1AD1E4
:100EA000BC0188E641E022DDFCDC89E295E040E619
:100EB0005AEE60E070E0CED389E295E0D1D350D015
:100EC000CEDE6ED1982F811191E080913205891785
:100ED00041F090933205992311F48EE601C085E626
:100EE0003EDDECD0813001F1823001F5E3D0F82E07
:100EF000DDD0082FFF20E1F08823D1F0AFD1882387
:100F000051F0202F30E080911B0290911C0282173B
:100F1000930774F00BC02F2D30E080911102909157
:100F200012028217930724F081E001C080E048D1CB
:100F300083E395E0C4D3882359F060E080913C05B9
:100F4000882309F461E060933C058DE00E940D1256
:100F5000DF91CF911F910F91FF90EF90DF90089557
:100F60000F931F930AE011E07DC084EF95E05ED6F9
:100F7000982F20913D05243409F43FC0253440F4D6
:100F80002130A1F0213060F0223009F06BC016C092
:100F9000283499F1203589F1263409F063C02DC039
:100FA000813209F05FC010933D055CC0833411F0BD
:100FB00080E001C082E080933D0554C08434C1F0DC
:100FC000853458F4813308F44BC0853370F08F3387
:100FD00061F0833409F044C008C0883449F080359A
:100FE00039F0863409F03CC003C010923D0541C081
:100FF00090933D0510923E0535C0892F80538A306D
:1010000050F480913E05809F802D11248053890FDC
:1010100080933E0527C09D3021F09A3011F0913227
:10102000F9F4263471F0273418F42434A9F411C0EB
:10103000283419F0203581F408C080913E052CD069
:101040000BC080913E0523D007C080913E051AD089
:1010500003C080913E0511D010923D0593E409C074
:1010600010923D0584EF95E0B5D5892B09F07DCF31
:1010700090E0892F1F910F910895682F84E090E0F0
:101080000C944113682F83E090E00C944113682F77
:1010900082E090E00C944113682F85E090E00C947E
:1010A0004113682F81E090E00C94411384E090E0BC
:1010B0000C94391383E090E00C94391382E090E0B3
:1010C0000C94391385E090E00C94391381E090E0A2
:1010D0000C9439138FE00E94C511AA2797FDA095A3
:1010E000BA2FBC01CD012DEE3FEF4FEF5FEF0E9415
:1010F000B0126959714B8F4F9F4F28EE33E040E09B
:1011000050E00E940413C90108958EE00E94C511A9
:10111000AA2797FDA095BA2FBC01CD012CEB3EEF7D
:101120004FEF5FEF0E94B012635F7A478A4F9F4F85
:1011300028EE33E040E050E00E940413C901089516
:101140008FE395E04CE251E060E070E021E094C272
:1011500084EF95E040E051EE60E070E053C4CF933F
:10116000DF93EC018FE395E0AAD28823D9F384EFD3
:1011700095E0BE0115D7DF91CF9108958091490583
:101180000895E82FF0E0EE0FFF1FEE0FFF1FE65B64
:10119000FA4F2081318142815381B901CA010895FA
:1011A0008091600590E0823008F091E0892F0895E9
:1011B00087E695E044E650E060E070E021E05CC244
:1011C000982F809166059817A1F090936605992352
:1011D00041F081E161E00E94E71181E161E00C945E
:1011E0000D1281E160E00E94E71181E160E00C9462
:1011F0000D120895809165058F3F71F481E10E9481
:10120000C51120E0853691050CF021E0822F2111D7
:1012100081E08093650503C0811181E0282F822F32
:1012200008951F93909148058091600520E030E07B
:10123000823010F021E030E044E0220F331F4A9565
:10124000E1F7192F1F7E122B80916605882311F478
:10125000D1DF81111064812F1F910895E2DF90E0AA
:1012600055E0959587955A95E1F783700895EF922B
:10127000FF920F931F93EDD77B018C0187E695E0DA
:101280001ED2882311F420E01FC0F89480915E05DF
:1012900090915F05892B09F044C08091490588230E
:1012A00009F43FC0E0924A05F0924B0500934C05CB
:1012B00010934D051092490582E0809360058FEFF1
:1012C0008093650521E07894F89480916105909170
:1012D0006205A0916305B0916405B801A701481BA0
:1012E000590B6A0B7B0BDB01CA01815A9F40A0405E
:1012F000B04084F060E670EF8FEF9FEFE60EF71ED0
:10130000081F191FE0926105F092620500936305C2
:10131000109364057894822F1F910F91FF90EF90A6
:10132000089510925F0510925E0520E0CCCF91D712
:10133000605A7F40804090406093610570936205E1
:10134000809363059093640580E06AEA79E042E067
:1013500050E0B4C6CF92DF92EF92FF920F931F93AB
:10136000CF93DF9310E0C0E0D0E071E0C72ED12C26
:10137000E12CF12CFE01E654FE4F80810E946112A7
:10138000892B61F4D701C6010C2E04C0880F991F68
:10139000AA1FBB1F0A94D2F7182B0CC0D701C60195
:1013A0000C2E04C0880F991FAA1FBB1F0A94D2F7E6
:1013B000809518232196C630D105E1F68091480525
:1013C000811709F45AC01093480543D79B01AC011B
:1013D000E12FF0E014FF23C0809161059091620538
:1013E000A0916305B091640579018A01E81AF90AB0
:1013F0000A0B1B0BD801C701805D9740A040B0408D
:1014000014F482E001C081E08093600520936105BF
:1014100030936205409363055093640502C01092B7
:101420006005A091490560E070E0EF70F070C1E0E8
:10143000D0E0CE01062E02C0880F991F0A94E2F771
:10144000E817F90719F4A62FAF5F05C06F5F7F4F4C
:101450006430710571F7809149058A1771F0EA2FA0
:10146000F0E0EE0FFF1FEE0FFF1FE65BFA4F208349
:10147000318342835383A093490580915E05909107
:101480005F05019690935F0580935E058FEF8093D3
:101490006505DF91CF911F910F91FF90EF90DF9045
:1014A000CF9008952F923F924F925F926F927F92CA
:1014B0008F929F92AF92BF92CF92DF92EF92FF9264
:1014C0000F931F93DF93CF9300D000D0CDB7DEB73B
:1014D000FC015B01842EE22EFF24C7018072907014
:1014E0009A83898325FD03C06BE2C62E02C050E2B9
:1014F000C52EF7FF05C0F095E195FF4F4DE2C42ED4
:10150000C7018F709070892B11F4992404C03FE0BB
:10151000932E92229394882D90E0D501A80FB91FA5
:10152000BC83AB8340E0DD2401E010E0292C3324B0
:1015300020E1422E512C4E205F203C01089461088E
:1015400071083DC02B813C81215030403C832B836E
:101550008D2D90E00215130529F42EE2AB81BC819C
:101560002C9329C0A981BA81AB2B71F0309761F41B
:101570009D1450F4AB81BC81CC92B0E2CB16E1F06B
:101580004F5F80E2C82E18C04114510439F086150F
:10159000970521F4AB81BC81CC920DC0CF016AE0EC
:1015A00070E0FDD7805DAB81BC818C93CF016AE098
:1015B00070E0F5D7FB014F5FD3940F5F1F4FD81436
:1015C00008F4C0CF542FEF2B69F0F50190E029E328
:1015D00007C080818053893008F420839F5F319653
:1015E0009815B8F3E6FE1EC04815E0F4A82DB0E04B
:1015F000A41BB109AA0DBB1D20E030E007C0F50116
:10160000E20FF31F8D9180832F5F3F4F2417B8F3B4
:1016100006C0F501E40FF11D80834F5F01C080E239
:101620004815B8F3852F0F900F900F900F90CF9122
:10163000DF911F910F91FF90EF90DF90CF90BF90BF
:10164000AF909F908F907F906F905F904F903F9062
:101650002F900895FC014583568367837087089512
:101660000F931F938C01F5D5F801618372838383F7
:1016700094831F910F9108950F931F938C01FC0188
:1016800020834583568367837087E3D5F8016183A0
:101690007283838394831F910F9108950F931F93F7
:1016A0008C01FC014583568367837087D2D5F8018E
:1016B00061837283838394831F910F910895EF92C6
:1016C000FF920F931F93CF93DF93EC01C2D5E98074
:1016D000FA800B811C812D813E814F8158856E19C6
:1016E0007F09800B910B621773078407950710F42D
:1016F00080E017C0211531054105510519F0888199
:10170000882331F0A6D569837A838B839C8308C0B4
:101710002E0D3F1D401F511F29833A834B835C834D
:1017200081E0DF91CF911F910F91FF90EF9008958D
:10173000FC0113861586148687E090E012863197A7
:10174000009711F00197FACF0895DC01862F90E001
:10175000FC01E656FF4FE491EC938A579F4FFC0142
:101760006491E62FF0E0EE0FFF1FE458FF4F8591E4
:10177000949112969C938E931197CD01D9CFDF92BD
:10178000EF92FF920F931F93FC01E0800181128181
:10179000F894F80181818E2981838281DE2CD09496
:1017A0008D21828383E090E0ACD5F80181818D2189
:1017B000818389E090E0A5D5F8010081789485E3E4
:1017C00090E09FD580E010E0FF240E211F21012B27
:1017D00009F081E01F910F91FF90EF90DF90089545
:1017E000EF92FF920F931F93CF93DF937C0101E061
:1017F00010E0C0E0D0E0C701C2DF8111102B000F64
:101800002196C830D105B9F7812FDF91CF911F9173
:101810000F91FF90EF9008951F93CF93DF93FC01FA
:101820001081C181D281912F909560FF11C0F894F1
:101830008A8189238A838981812B89838AE090E048
:1018400060D58A81812B8A83789487E390E010C0E9
:10185000F8948A8189238A838981812B898381E411
:1018600090E04FD58A81812B8A83789485E090E03F
:1018700048D5DF91CF911F910895CF92DF92EF92DB
:10188000FF920F931F93CF93DF938C01E42EFF24DD
:10189000F394C0E0D0E0C62EDD2460E08F2D90E010
:1018A0008C219D21892B09F061E0C801B5DFFF0C77
:1018B0002196C830D10589F7EE20A9F4F894D80113
:1018C0001196ED91FC91129791818C9180959823BE
:1018D00091831196ED91FC91129792818C91809554
:1018E000982392837894DF91CF911F910F91FF906D
:1018F000EF90DF90CF9008956CEC40E0BECFDF9288
:10190000EF92FF920F931F93CF93DF93FC0100811F
:10191000C181D281F8948981D02ED0948D21898380
:1019200078941DE7E02EFF24115039F182E090E019
:10193000E8D4888190E08E219F21892BA9F3F89427
:101940008A818D218A838981802B8983789484EF91
:1019500091E0D7D4F89489818D21898380E590E046
:10196000D0D4888110E090E0E822F922EF2809F431
:1019700011E0789484EA91E0C4D4812FDF91CF9173
:101980001F910F91FF90EF90DF9008951F920F929B
:101990000FB60F9211242F933F934F935F936F9342
:1019A0007F938F939F93AF93BF93EF93FF93409158
:1019B000C600E091F005F091F105CF01019660E8D5
:1019C00070E0EDD59C018091F2059091F305281708
:1019D000390739F0E059FA4F40833093F1052093ED
:1019E000F005FF91EF91BF91AF919F918F917F9102
:1019F0006F915F914F913F912F910F900FBE0F907C
:101A00001F9018955F926F927F928F929F92AF92E4
:101A1000BF92CF92DF92EF92FF920F931F93CF93DB
:101A2000DF93EC015A016B0181E4A81682E4B80649
:101A30008FE0C80680E0D80608F06FC060E874E860
:101A40008EE190E0A6019501BDD539014A010894C7
:101A50006108710881089108969487947794679437
:101A6000A40193012F5F3F4F4F4F5F4F74E0220F50
:101A7000331F441F551F7A95D1F760E074E284EF5D
:101A800090E0A0D5CA01B9012FEF30E040E050E06E
:101A900067D5A601950196D58FEF90E0821B930B39
:101AA000181619061CF4522E509402C0522E53944C
:101AB00060E079E08DE390E0A601950183D52150A7
:101AC00030404040504056954795379527952F5FB9
:101AD0003F4F4F4F5F4F93E0220F331F441F551F5F
:101AE0009A95D1F760E074E284EF90E06BD5CA017B
:101AF000B9012FEF30E040E050E032D5A60195016A
:101B000061D58FEF90E0821B930B1816190614F421
:101B1000209501C02F5F2515E8F4E885F98581E05F
:101B200090E00A8802C0880F991F0A94E2F7808328
:101B300060E079E08DE390E0A601950143D5215066
:101B40003040404050405695479537952795822F15
:101B5000232F05C0E885F9851082862D272DEC817D
:101B6000FD812083EE81FF818083EA85FB852081D2
:101B700041E050E0CA010E8402C0880F991F0A9408
:101B8000E2F7282B2083EA85FB852081CA010F8498
:101B900002C0880F991F0A94E2F7282B2083EA8558
:101BA000FB858081088802C0440F551F0A94E2F724
:101BB000842B8083DF91CF911F910F91FF90EF9045
:101BC000DF90CF90BF90AF909F908F907F906F905D
:101BD0005F900895DC011296ED91FC911397E05807
:101BE000FF4F8191919180589F4F20813181821BBD
:101BF000930B60E870E0D3C4DC011296ED91FC9188
:101C00001397EE57FF4F2081318192918291E058D6
:101C1000F0408217930719F42FEF3FEF05C0E20F52
:101C2000F31F8081282F30E0C9010895CF93DF93FF
:101C3000DC011296ED91FC911397EF01CE57DF4F27
:101C400048815981E058FF4F80819181E058F040F0
:101C50008417950719F42FEF3FEF0BC0E40FF51F22
:101C60002081CA01019660E870E099D49983888345
:101C700030E0C901DF91CF910895DC011296ED911A
:101C8000FC911397EE57FF4F80819181929382933D
:101C90000895FC01A085B18521898C9190E0022EE8
:101CA00002C0959587950A94E2F780FFF6CF0484E9
:101CB000F585E02D6083089584EC91E09093F5051F
:101CC0008093F40580E795E09093F7058093F605FF
:101CD00085EC90E09093F9058093F80584EC90E012
:101CE0009093FB058093FA0580EC90E09093FD05BE
:101CF0008093FC0581EC90E09093FF058093FE05B6
:101D000086EC90E0909301068093000684E0809337
:101D1000020683E08093030687E08093040685E053
:101D20008093050681E08093060608950F931F9324
:101D3000CF93DF938C01EB0109C02196D801ED917F
:101D4000FC910190F081E02DC8010995688166231E
:101D5000A1F7DF91CF911F910F910895EF92FF921C
:101D60000F931F93CF93DF938C017B01EA010CC08B
:101D7000D7016D917D01D801ED91FC910190F08129
:101D8000E02DC80109952197209791F7DF91CF9118
:101D90001F910F91FF90EF900895DC01ED91FC9160
:101DA0000280F381E02D099508952F923F924F9282
:101DB0005F926F927F928F929F92AF92BF92CF92DB
:101DC000DF92EF92FF920F931F93DF93CF93CDB7E4
:101DD000DEB7A0970FB6F894DEBF0FBECDBF1C01D3
:101DE0006A017B01411551056105710541F440E32C
:101DF00050E060E070E020E030E089D051C08824FD
:101E000099245401422E55246624772401E010E0E1
:101E10000C0F1D1F080D191DC701B601A30192016A
:101E2000D1D3F80160830894811C911CA11CB11CC2
:101E3000C701B601A3019201C5D3C901DA016C0142
:101E40007D01C114D104E104F10401F781E0E82E21
:101E5000F12CEC0EFD1EE80CF91C3E010894611CEF
:101E6000711CD501C4010197A109B1096C01C81801
:101E7000D90813C0F601EE0DFF1D40814A3010F461
:101E8000405D01C0495C50E060E070E0C10120E0CD
:101E900030E03DD00894E108F1086E147F0451F75A
:101EA000A0960FB6F894DEBF0FBECDBFCF91DF91E5
:101EB0001F910F91FF90EF90DF90CF90BF90AF9068
:101EC0009F908F907F906F905F904F903F902F905A
:101ED0000895DC012115310541F4ED91FC9101904B
:101EE000F081E02D642F099508955FCFEF92FF9266
:101EF0000F931F939A01E62EFF2400E010E0B80133
:101F0000A701E7DF1F910F91FF90EF900895EF92E7
:101F1000FF920F931F93CF93DF93EC017A018B0114
:101F20002115310541F4E881F9810190F081E02D1E
:101F3000642F099519C02A303105A9F477FF0FC025
:101F40004DE250E060E070E020E030E0E0DF10952E
:101F50000095F094E094E11CF11C011D111DCE01CF
:101F6000B801A7012AE021DFDF91CF911F910F91E6
:101F7000FF90EF9008950F931F938C014DE050E078
:101F800060E070E020E030E0C2DFC8014AE050E0ED
:101F900060E070E020E030E0BADF1F910F9108951B
:101FA0000F931F938C01F9DEC801E5DF1F910F919C
:101FB0000895813041F0813018F08230D1F409C0A9
:101FC00010926E00089580916F008D7F80936F0056
:101FD0000895809170008D7F8093700081E08093E0
:101FE000B0008091B100887F84608093B10010922E
:101FF000B30008951F920F920FB60F9211242F93E2
:102000003F934F935F936F937F938F939F93AF9380
:10201000BF93EF93FF938091070690910806A091DC
:102020000906B0910A060097A105B10551F1E091AA
:102030000B06F0910C06808190910D068927808314
:102040008091070690910806A0910906B0910A06B2
:10205000181619061A061B0604F5809107069091BA
:102060000806A0910906B0910A060197A109B109D5
:102070008093070690930806A0930906B0930A067A
:102080000CC082E096DFE0910B06F0910C06908187
:1020900080910D06809589238083FF91EF91BF91F8
:1020A000AF919F918F917F916F915F914F913F91F0
:1020B0002F910F900FBE0F901F901895823000F552
:1020C000E82FF0E0EE0FFF1FE25FF94F71836083AE
:1020D000882319F08130A1F408C0809169008C7FB9
:1020E000842B80936900E89A089580916900440FD9
:1020F000551F440F551F837F842B80936900E99AF5
:1021000008951F920F920FB60F9211242F933F93B1
:102110004F935F936F937F938F939F93AF93BF93EF
:10212000EF93FF9380910E0690910F06892B29F073
:10213000E0910E06F0910F060995FF91EF91BF9186
:10214000AF919F918F917F916F915F914F913F914F
:102150002F910F900FBE0F901F9018951F920F9206
:102160000FB60F9211242F933F934F935F936F936A
:102170007F938F939F93AF93BF93EF93FF93809140
:10218000100690911106892B29F0E0911006F0912C
:1021900011060995FF91EF91BF91AF919F918F919A
:1021A0007F916F915F914F913F912F910F900FBE53
:1021B0000F901F901895AFD00E9460040E944106B6
:1021C000FDCF1F920F920FB60F9211242F933F93C2
:1021D0008F939F93AF93BF938091160690911706AC
:1021E000A0911806B091190630911A060196A11D0A
:1021F000B11D232F2D5F2D3720F02D570196A11DE6
:10220000B11D20931A068093160690931706A0938B
:102210001806B09319068091120690911306A091AA
:102220001406B09115060196A11DB11D80931206EA
:1022300090931306A0931406B0931506BF91AF9127
:102240009F918F913F912F910F900FBE0F901F90F4
:1022500018958FB7F8942091160630911706409183
:102260001806509119068FBFB901CA0108959FB78A
:10227000F894209112063091130640911406509163
:10228000150686B5A89B06C08F3F21F02F5F3F4FF4
:102290004F4F5F4F9FBF542F432F322F2227280FBE
:1022A000311D411D511D82E0220F331F441F551F58
:1022B0008A95D1F7B901CA010895EF92FF920F9361
:1022C0001F93CF93DF937B018C01D1DFEB010DC016
:1022D000CEDF6C1B7D0B685E7340D0F30894E10881
:1022E000F10801091109C851DC4FE114F10401059D
:1022F000110571F7DF91CF911F910F91FF90EF9032
:102300000895019739F0880F991F880F991F029738
:102310000197F1F70895789484B5826084BD84B5FF
:10232000816084BD85B5826085BD85B5816085BDD0
:10233000EEE6F0E0808181608083E1E8F0E080817A
:1023400082608083808181608083E0E8F0E080812A
:1023500081608083E1EBF0E0808184608083E0EB4A
:10236000F0E0808181608083EAE7F0E08081846032
:10237000808380818260808380818160808380818E
:10238000806880831092C1000895982F8E3008F0E5
:102390009E5097708091B9018295880F880F807C3C
:1023A000892B80937C0080917A00806480937A00EE
:1023B00080917A0086FDFCCF2091780040917900D1
:1023C000942F80E030E0282B392BC9010895482F45
:1023D00050E0CA0186569F4FFC0124914A575F4F37
:1023E000FA0184918823C1F0E82FF0E0EE0FFF1F7F
:1023F000E859FF4FA591B491662341F49FB7F89433
:102400008C91209582238C939FBF08959FB7F89459
:102410008C91822B8C939FBF0895482F50E0CA0166
:1024200082559F4FFC012491CA0186569F4FFC01A3
:1024300034914A575F4FFA019491992309F440C0AF
:10244000222331F1233021F4809180008F7705C061
:10245000243031F4809180008F7D8093800018C0FB
:10246000213019F484B58F7704C0223021F484B56B
:102470008F7D84BD0DC0263021F48091B0008F7710
:1024800005C0273029F48091B0008F7D8093B00083
:10249000E92FF0E0EE0FFF1FEE58FF4FA591B4912A
:1024A000662341F49FB7F8948C91309583238C93E5
:1024B0009FBF08959FB7F8948C91832B8C939FBFF7
:1024C0000895682F70E0CB0182559F4FFC01249145
:1024D000CB0186569F4FFC0144916A577F4FFB0109
:1024E0009491992319F420E030E038C0222331F18F
:1024F000233021F4809180008F7705C0243031F49F
:10250000809180008F7D8093800018C0213019F465
:1025100084B58F7704C0223021F484B58F7D84BDCB
:102520000DC0263021F48091B0008F7705C0273090
:1025300029F48091B0008F7D8093B000892F90E0C6
:10254000880F991F84589F4FFC01A591B4918C91DD
:1025500020E030E0842311F021E030E0C90108954B
:10256000629FD001739FF001829FE00DF11D649F77
:10257000E00DF11D929FF00D839FF00D749FF00D03
:10258000659FF00D9927729FB00DE11DF91F639FA4
:10259000B00DE11DF91FBD01CF011124089597FB76
:1025A000092E07260AD077FD04D049D006D0002096
:1025B0001AF4709561957F4F0895F6F7909581957F
:1025C0009F4F0895A1E21A2EAA1BBB1BFD010DC04F
:1025D000AA1FBB1FEE1FFF1FA217B307E407F507D3
:1025E00020F0A21BB30BE40BF50B661F771F881FAF
:1025F000991F1A9469F760957095809590959B0145
:10260000AC01BD01CF01089597FB092E05260ED020
:1026100057FD04D0D7DF0AD0001C38F45095409500
:10262000309521953F4F4F4F5F4F0895F6F79095A6
:102630008095709561957F4F8F4F9F4F0895AA1B8E
:10264000BB1B51E107C0AA1FBB1FA617B70710F09D
:10265000A61BB70B881F991F5A95A9F780959095CF
:10266000BC01CD010895EE0FFF1F0590F491E02D00
:102670000994F999FECF92BD81BDF89A992780B54A
:102680000895262FF999FECF1FBA92BD81BD20BDB6
:102690000FB6F894FA9AF99A0FBE01960895F89435
:0226A000FFCF6A
:1026A2005B43204D0020480020460020500020447B
:1026B200005D2A007B433A436F6E74726F6C48650B
:1026C2006174657220737461727465647D2A000A94
:1026D200090B0C015B433A3020733030303030301C
:1026E200302B3F3F2E3F20642B302E303020703075
:1026F200302E302071302E3020773030206930304B
:10270200302D302E3020613030302B302E3020757D
:1027120030303030303030305D2A200021433D00EF
:1027220000000000000000000000000000000000A7
:102732000000000000000000000000000000000097
:102742000000000000000000000000000000000087
:102752000000000000000000030103070605040852
:1027620000000000490E960EAE0EEA0D160E3D0E4A
:02277200FC0D5C
:00000001FF
