:1000000065C000000C9440100C946D1087C0000077
:1000100085C0000083C0000081C000000C94B90FAF
:100020007DC000007BC0000079C0000077C00000E8
:1000300075C0000073C0000071C000006FC00000F8
:100040000C94A0106BC000000C94850C67C00000DD
:1000500065C0000063C0000061C000005FC0000018
:100060005DC000005BC0000000000000240027000D
:100070002A0000000000250028002B0000000000DE
:1000800023002600290004040404040404040202DA
:100090000202020203030303030301020408102007
:1000A0004080010204081020010204081020000012
:1000B0000007000201000003040600000000000029
:1000C00000008F001B026D08A5081B0E11241FBE27
:1000D000CFEFD8E0DEBFCDBF11E0A0E0B1E0E0E2BD
:1000E000F6E202C005900D92A23DB107D9F716E0E5
:1000F000A2EDB1E001C01D92AB31B107E1F710E014
:10010000CCECD0E004C02297FE010E94F412C23C65
:10011000D107C9F70E949A100C940E1371CF82ED8B
:1001200091E04CE251E060E070E00C940D0B8091A6
:100130002C0161E00E94A61180912D0161E00E94D6
:10014000A61180912E0161E00E94A61180912F01DD
:1001500061E00C94A611FF920F931F93182FE82FC4
:10016000F0E0E55DFE4FF08000E014C0D4D78117C9
:10017000E9F082ED91E00E941E0B8823B9F4F6CFDE
:10018000CAD78117E1F082ED91E00E941E0B88230F
:10019000B1F4F6CFC0D78117A9F08F2D61E00E948E
:1001A000CC1182ED91E00E94EF0AE0CF8F2D60E04C
:1001B0000E94CC1182ED91E00E94EF0AE1CF0F5F27
:1001C000033041F71F910F91FF900895DC018FE7F5
:1001D0006F3F780709F450C059968C9159978A302F
:1001E00031F557964C915797E42FF0E03D96EE0F7E
:1001F000FF1FEA0FFB1F9E968D919C919F97208178
:100200003181821B930B9F969C938E939E974F5F99
:1002100057964C9357974A3019F457961C92579714
:1002200059968C915997815059968C9359979E96CF
:100230008D919C919F97860F971F9F969C938E936D
:100240009E9758968C915897E82FF0E03D96EE0FC8
:10025000FF1FEA0FFB1F718360838F5F58968C939B
:1002600058978A3019F458961C92589759968C9141
:1002700059978F5F59968C9308950F931F93182F5A
:10028000092F0E943E0C882351F0812F902F0E944D
:100290003B0C812F902F64E440E00E94FC0B1F91E7
:1002A0000F910895EADF68EE73E080E090E00C942F
:1002B0001C11FF920F931F93082FF92E0E943E0CE2
:1002C000882319F42FEF3FE717C0802F9F2D0E943E
:1002D0003B0C802F9F2D6EEB40E00E94FC0B802F8B
:1002E0009F2D0E94AF0B182F802F9F2D0E94AF0BC8
:1002F000382F20E0210F311DC9011F910F91FF9070
:100300000895CF93DF93EC010E960E941E0B882375
:1003100039F0CE01CEDFBC01CE0158DFCE01ADDF1A
:10032000DF91CF9108950F931F938C010E94640B6E
:10033000C8010E9648EE53E060E070E021E00E94B4
:10034000FB0AF801178A108E118E17A616A61F91A8
:100350000F9108950F931F9304EF15E0C80160E01B
:1003600071E00E948C0E7FD6682FC8014AE050E0F1
:100370000E94350FC80165E071E00E948C0E6FD6B7
:10038000682FC8014AE050E00E94350FC80168E0BC
:1003900071E00E948C0E5FD6682FC8014AE050E0E1
:1003A0000E94350FC8016BE071E00E948C0E4FD6A1
:1003B000682FC8014AE050E00E94350FC8016EE086
:1003C00071E00E948F0F1F910F9108951F93FC0100
:1003D000118D112319F42FEF3FE719C066A577A5FA
:1003E000882777FD8095982F24E630E040E050E0A4
:1003F0000E946F12212F30E044E0220F331F4A95F4
:10040000E1F7442737FD4095542F0E94C312C901DC
:100410001F9108959C01181619061CF08BEF9FEF91
:1004200002C085E090E0820F931F6AE070E00E94B6
:100430008E12CB0108958BED91E060E174DF8AEFBD
:1004400094E048E95AE360E070E021E00E94FB0A92
:1004500083E095E048E853E160E070E00E940D0B16
:1004600080E003C0EA3349F08F5FE82FF0E0EF5CF3
:10047000FE4FE081EE23B1F780E08F5F80930C05A3
:1004800080E003C0E33749F08F5FE82FF0E0EF5CD6
:10049000FE4FE081EE23B1F780E08F5F80930D0582
:1004A00080E003C0EA3249F08F5FE82FF0E0EF5CB4
:1004B000FE4FE081EE23B1F780E080930E0590E0DF
:1004C00003C0EB3249F09F5FE92FF0E0EF5CFE4F95
:1004D000E081EE23B1F790E090930F05892F03C0E0
:1004E000E03249F08F5FE82FF0E0EF5CFE4FE081F3
:1004F000EE23B1F780E0891B8093100580E003C0F4
:10050000E43649F08F5FE82FF0E0EF5CFE4FE081CA
:10051000EE23B1F780E0982F9F5F90931105892F0C
:1005200003C0E03249F08F5FE82FF0E0EF5CFE4F50
:10053000E081EE23B1F780E0891B8093120580E013
:1005400003C0E03749F08F5FE82FF0E0EF5CFE4F2B
:10055000E081EE23B1F780E0982F9F5F9093130521
:10056000892F03C0E03249F08F5FE82FF0E0EF5CA5
:10057000FE4FE081EE23B1F780E0891B80931405E4
:1005800080E003C0E13749F08F5FE82FF0E0EF5CD7
:10059000FE4FE081EE23B1F780E0982F9F5F9093AC
:1005A0001505892F03C0E03249F08F5FE82FF0E096
:1005B000EF5CFE4FE081EE23B1F780E0891B809372
:1005C000160580E003C0E73749F08F5FE82FF0E0C1
:1005D000EF5CFE4FE081EE23B1F780E0982F9F5F44
:1005E00090931705892F03C0E03249F08F5FE82F01
:1005F000F0E0EF5CFE4FE081EE23B1F780E0891B75
:100600008093180580E003C0E93649F08F5FE82F3A
:10061000F0E0EF5CFE4FE081EE23B1F780E0982F31
:100620009F5F90931905892F03C0ED3249F08F5FCA
:10063000E82FF0E0EF5CFE4FE081EE23B1F780E0C1
:10064000891B80931A05890F80931B05982F03C07F
:10065000E03249F09F5FE92FF0E0EF5CFE4FE08170
:10066000EE23B1F790E0981B90931C0580E003C047
:10067000E13649F08F5FE82FF0E0EF5CFE4FE0815C
:10068000EE23B1F780E0982F9F5F90931D05892F8F
:1006900003C0EB3249F08F5FE82FF0E0EF5CFE4FD4
:1006A000E081EE23B1F780E0891B80931E05890F5E
:1006B00080931F05982F03C0E03249F09F5FE92F18
:1006C000F0E0EF5CFE4FE081EE23B1F790E0981B85
:1006D0009093200580E003C0E53749F08F5FE82F55
:1006E000F0E0EF5CFE4FE081EE23B1F780E0982F61
:1006F0009F5F90932105892F03C0ED3549F08F5FEF
:10070000E82FF0E0EF5CFE4FE081EE23B1F780E0F0
:10071000891B8093220589E295E040ED57E060E077
:1007200070E07BD783E395E048EE53E060E070E053
:1007300021E061C79F92AF92BF92CF92DF92EF927A
:10074000FF920F931F93CF93DF930E94E810C62E62
:10075000B72EA82E992E4FD5D82E8BED91E036DEF0
:10076000EC012FE78F3F920709F482C0EC2CFB2CA1
:100770000A2D192DDD2011F0DD24D39480911F0264
:10078000882379F4DD20A1F5E0920B02F0920C02AF
:1007900000930D0210930E02D0931002C0930F022B
:1007A00002C0DD2029F580910B0290910C02A091EE
:1007B0000D02B0910E02A8019701281B390B4A0BBC
:1007C0005B0BCA01B90120E63AEE40E050E00E941E
:1007D000C312309312022093110280910F02909164
:1007E0001002AE01481B590B5093140240931302A0
:1007F00080912002882379F4DD2089F1E0921502AE
:10080000F09216020093170210931802D0931A0266
:10081000C093190202C0DD2011F180911502909160
:100820001602A0911702B0911802E81AF90A0A0BF1
:100830001B0BC801B70120E63AEE40E050E00E94F1
:10084000C31230931C0220931B02809119029091D5
:100850001A02C81BD90BD0931E02C0931D0210921E
:100860001F02DD2019F481E080931F02D092200244
:10087000DF91CF911F910F91FF90EF90DF90CF907C
:10088000BF90AF909F900895E091B701E33051F091
:10089000F0E0E558FE4F10828BE791E02DD483E025
:1008A0008093B701089521D481E191E025D48BEDA7
:1008B00091E0F8DC09D53BDC4DCD1F932CD4182FEB
:1008C000882329F0D0D3181711F0812FBBD31F91A3
:1008D00008950F931F93CF93DF93082FEB01142FED
:1008E0008091B70190E0C5970CF0CEDF6091B70121
:1008F000E62FF0E0E558FE4F00836F5F6093B7018D
:1009000070E065587E4F1066CE0146E0212F97D5E6
:100910009091B701980F9093B701DF91CF911F91FC
:100920000F910895FF920F931F938B01F42E72DDA8
:100930000F5C1E4FB8014F2D21E181D51F910F9102
:10094000FF9008958F929F92AF92BF92CF92DF92C5
:10095000EF92FF920F931F93982EF894DCD3182FE9
:100960002DD47894E0910C05F0E0EF5CFE4F105D23
:10097000108390910D05E92FF0E0EF5CFE4F20E031
:1009800030E0482F50E0CA01022E02C095958795AD
:100990000A94E2F78170805D81932F5F3F4F27308B
:1009A000310589F78BED91E011DD2FE78F3F92073D
:1009B00039F060910F054091100570E050E0B2DF12
:1009C0006091110570E06F5C7E4F8091F80490910A
:1009D000F9044091120522E132D56091170570E0CB
:1009E0006F5C7E4F8091F6049091F704409118055A
:1009F00020E025D56091190570E06F5C7E4F8091F5
:100A000011029091120240911A0520E018D56091D0
:100A10001B0540911C05809113029091140270E017
:100A200050E080DF60911D0570E06F5C7E4F80912B
:100A30001B0290911C0240911E0520E000D56091A0
:100A40001F054091200580911D0290911E0270E0CB
:100A500050E068DF27D36091130570E06F5C7E4F34
:100A60004091140521E0EBD402D36091150570E0AC
:100A70006F5C7E4F4091160521E0E1D40E94E810A2
:100A80007B018C0160912705709128052091230539
:100A9000309124054091250550912605D801C701C4
:100AA000821B930BA40BB50B04C080509C45A6423F
:100AB000B540B62EA72E822EF32FD42EC52E6F5FF3
:100AC0007F4F2050344A494D5A4F8130ECE59E0704
:100AD000E6E2AE07E5E0BE0744F7B0922705A09234
:100AE000280580922305F0932405D0922505C09215
:100AF00026056091210570E06F5C7E4F40912205D4
:100B000046508B2D9A2D20E09AD480912305909108
:100B10002405A0912505B0912605E81AF90A0A0BCB
:100B20001B0BC801B70128EE33E040E050E00E9403
:100B3000C312122F032FF42EE52E622F732F842F52
:100B4000952F2CE330E040E050E00E94C312DC011E
:100B5000CB01209121056091220570E0620F711D8B
:100B6000615D7E4F42E020E06AD4612F702F8F2DAF
:100B70009E2D2CE330E040E050E00E94C312122F83
:100B8000032FF42EE52E622F732F842F952F2CE345
:100B900030E040E050E00E94C312DC01CB01209124
:100BA00021056091220570E0620F711D635D7E4F2B
:100BB00042E020E044D4612F702F8F2D9E2D2CE336
:100BC00030E040E050E00E94C312DA01C9012091F8
:100BD00021056091220570E0620F711D655D7E4FF9
:100BE00042E020E02CD480910E05992011F4E82FEA
:100BF00012C0E82FF0E0EF5CFE4F9082982F9F5FCD
:100C00002AE2921639F0E92FF0E0EF5CFE4F8AE21B
:100C100080839F5FE92FF0E0EF5CFE4F108281E35D
:100C200091E06AD283E095E0DAD4109230011F910E
:100C30000F91FF90EF90DF90CF90BF90AF909F907B
:100C40008F900895813378F0853340F08F3319F019
:100C5000833449F402C08FE375CE7CCB80537BDABA
:100C60002CDE83E66FCE0895EF92FF920F931F93D1
:100C7000CF93DF938BED91E044DB5CDDC5D288231D
:100C800011F089E65FDE47D2082FEDD1002369F02D
:100C9000081759F0833031F4013021F45CDA0DDEAD
:100CA00082E702C00ADE82E64DDE35D28430C1F42E
:100CB0000E94E8107B018C0184E030D2E61AF70A2A
:100CC000080B190B21ECE21625E6F20622E50207D5
:100CD00020E0120728F081E03EDAEFDD88E632DE20
:100CE0008BED91E073DB7C013FE78F3F930709F4C5
:100CF0007CC08AEF94E0A2D4882309F476C07BD22A
:100D0000282F811121E08091F4049091F504820F45
:100D1000911D9093F5048093F4048091F3048F5F08
:100D20008093F3048091F20490E08C01000F111F76
:100D3000080F191F0F5D1D4FF80120838BED91E007
:100D400045DBF80192838183C091F404D091F504CE
:100D50000091F3048CE390E09C01C29FC001C39F0B
:100D6000900DD29F900D1124602F70E00E948E1282
:100D70007093F7046093F6044091F104242F30E05F
:100D8000F901EE0FFF1FE20FF31FEF5DFD4F8181B1
:100D90009281E81AF90AF092F904E092F80480913D
:100DA000F2048F5F8093F204803F11F41092F204FA
:100DB0008091F2048417C9F4F901EE0FFF1FE20FCE
:100DC000F31FEF5DFD4F8081C81BD109D093F5045F
:100DD000C093F404842F8F5F8093F104803F11F45B
:100DE0001092F10401500093F30483E095E026D4BF
:100DF000882329F08091300181118AE2A3DD89E204
:100E000095E01CD4882309F441C08BED91E0DEDA33
:100E10003FE78F3F930729F0FDDABC0181E641E10E
:100E200058DD6091F8047091F90482E642E151DDE9
:100E30006091F6047091F70483E640E04ADD6BD1DF
:100E4000682F84E670E040E044DD77D1682F85E6C6
:100E500070E040E03EDDCFD1682F86E670E040E0F4
:100E600038DD20D1BC0187E641E033DD00D1BC0193
:100E700088E641E02EDD08DD89E295E040E65AEEA5
:100E800060E070E0A6D389E295E0A9D34FD0DADE26
:100E900054D1982F811191E080913205891741F04A
:100EA00090933205992311F48EE601C085E64ADD60
:100EB000D6D0813001F1823001F5CDD0F82EC7D0E7
:100EC000082FFF20E1F08823D1F095D1882351F03D
:100ED000202F30E080911B0290911C0228173907C7
:100EE00074F40BC02F2D30E080911102909112020A
:100EF0002817390724F481E001C080E02ED183E374
:100F000095E09CD3882359F060E080913C058823CC
:100F100009F461E060933C058DE00E94CC11DF9103
:100F2000CF911F910F91FF90EF9008950F931F9312
:100F30000AE011E06DC084EF95E037D6982F20913C
:100F40003D052230F1F0233030F4222361F02130CE
:100F500009F05EC00EC0263479F1203569F12434E1
:100F600009F056C029C0813209F052C010933D05E6
:100F70004FC0833411F080E001C082E080933D05D2
:100F800047C0833489F0843440F4813308F43EC090
:100F9000853350F08F33D1F507C0863441F080356A
:100FA00031F0843499F503C010923D0538C0909318
:100FB0003D0510923E052CC0892F80538A3050F495
:100FC00080913E05809F802D11248053890F80934E
:100FD0003E051EC09D3021F09A3011F09132B1F4DF
:100FE000263429F0203539F0243461F408C080918A
:100FF0003E0523D007C080913E051AD003C08091E2
:101000003E0511D010923D0593E409C010923D05B4
:1010100084EF95E09ED5892B09F08DCF90E0892F44
:101020001F910F910895682F84E090E00C940013B5
:10103000682F83E090E00C940013682F82E090E02A
:101040000C940013682F81E090E00C94001384E06E
:1010500090E00C94F81283E090E00C94F81282E097
:1010600090E00C94F81281E090E00C94F8128FE07C
:101070000E948411AA2797FDA095BA2FBC01CD012B
:101080002DEE3FEF4FEF5FEF0E946F126959714BEA
:101090008F4F9F4F28EE33E040E050E00E94C31294
:1010A000C90108958EE00E948411AA2797FDA0959A
:1010B000BA2FBC01CD012CEB3EEF4FEF5FEF0E944A
:1010C0006F12635F7A478A4F9F4F28EE33E040E00C
:1010D00050E00E94C312C90108958FE395E04CE2ED
:1010E00051E060E070E021E086C284EF95E040E0EE
:1010F00051EE60E070E045C4CF93DF93EC018FE3E5
:1011000095E09CD28823D9F384EF95E0BE0107D700
:10111000DF91CF910895809149050895E82FF0E07F
:10112000EE0FFF1FEE0FFF1FE65BFA4F20813181AC
:1011300042815381B901CA0108958091600590E010
:10114000823008F091E0892F089587E695E044E623
:1011500050E060E070E021E04EC2982F809166057B
:101160009817A1F090936605992341F081E161E021
:101170000E94A61181E161E00C94CC1181E160E054
:101180000E94A61181E160E00C94CC110895809139
:1011900065058F3F71F481E10E94841120E085365E
:1011A00091050CF021E0822F211181E080936505EB
:1011B00003C0811181E0282F822F08951F93909101
:1011C00048058091600520E030E0823010F021E099
:1011D00030E044E0220F331F4A95E1F7192F1F7EBC
:1011E000122B80916605882311F4D1DF81111064E0
:1011F000812F1F910895E2DF90E055E09595879546
:101200005A95E1F783700895EF92FF920F931F9321
:10121000DFD77B018C0187E695E010D2882311F49B
:1012200020E01FC0F89480915E0590915F05892BA6
:1012300009F044C080914905882309F43FC0E09239
:101240004A05F0924B0500934C0510934D05109202
:10125000490582E0809360058FEF8093650521E06A
:101260007894F8948091610590916205A09163054E
:10127000B0916405B801A701481B590B6A0B7B0BA1
:10128000DB01CA01815A9F40A040B04084F060E673
:1012900070EF8FEF9FEFE60EF71E081F191FE09209
:1012A0006105F092620500936305109364057894DC
:1012B000822F1F910F91FF90EF90089510925F057C
:1012C00010925E0520E0CCCF83D7605A7F408040EB
:1012D00090406093610570936205809363059093DD
:1012E000640580E067E779E042E050E0A6C6CF926F
:1012F000DF92EF92FF920F931F93CF93DF9310E053
:10130000C0E0D0E071E0C72ED12CE12CF12CFE0121
:10131000E754FE4F80810E942012892B61F4D7018F
:10132000C6010C2E04C0880F991FAA1FBB1F0A9468
:10133000D2F7182B0CC0D701C6010C2E04C0880FA1
:10134000991FAA1FBB1F0A94D2F7809518232196D4
:10135000C630D105E1F680914805811709F45AC0DD
:101360001093480535D79B01AC01E12FF0E014FF45
:1013700023C08091610590916205A0916305B091B1
:10138000640579018A01E81AF90A0A0B1B0BD801D6
:10139000C701805D9740A040B04014F482E001C0D6
:1013A00081E080936005209361053093620540934E
:1013B00063055093640502C010926005A091490531
:1013C00060E070E0EF70F070C1E0D0E0CE01062E7A
:1013D00002C0880F991F0A94E2F7E817F90719F479
:1013E000A62FAF5F05C06F5F7F4F6430710571F747
:1013F000809149058A1771F0EA2FF0E0EE0FFF1F88
:10140000EE0FFF1FE65BFA4F208331834283538345
:10141000A093490580915E0590915F050196909398
:101420005F0580935E058FEF80936505DF91CF9117
:101430001F910F91FF90EF90DF90CF9008952F9222
:101440003F924F925F926F927F928F929F92AF9254
:10145000BF92CF92DF92EF92FF920F931F93DF9391
:10146000CF9300D000D0CDB7DEB7FC015B01842E56
:10147000022F10E0C801807290709A83898325FD45
:1014800003C07BE2C72E02C060E2C62EF7FF05C094
:10149000F095E195FF4F5DE2C52EC8018F70907009
:1014A000892B11F4992404C04FE0942E9222939436
:1014B000882D90E0D501A80FB91FBC83AB8340E015
:1014C000DD2431E0E32EF12C292C332420E1422EBF
:1014D000512C402251223C010894610871083EC001
:1014E0002B813C81215030403C832B838D2D90E01B
:1014F000E214F30429F42EE2AB81BC812C9329C0C1
:10150000A981BA81AB2B71F0309761F49D1450F42E
:10151000AB81BC81CC92B0E2CB16E1F04F5F80E2B0
:10152000C82E18C04114510439F08615970521F4CE
:10153000AB81BC81CC920DC0CF016AE070E0EED7E8
:10154000805DAB81BC818C93CF016AE070E0E6D70F
:10155000FB014F5FD3940894E11CF11CD81408F4EC
:10156000BFCF06FF1EC04815E0F4A82DB0E0A41BB5
:10157000B109AA0DBB1D20E030E007C0F501E20F64
:10158000F31F8D9180832F5F3F4F2417B8F3842F73
:1015900090E205C0F501E80FF11D90838F5F88157B
:1015A000C8F3842F0F900F900F900F90CF91DF9181
:1015B0001F910F91FF90EF90DF90CF90BF90AF9071
:1015C0009F908F907F906F905F904F903F902F9063
:1015D0000895FC01458356836783708708950F93B0
:1015E0001F938C01F5D5F801618372838383948303
:1015F0001F910F9108950F931F938C01FC0120837D
:101600004583568367837087E3D5F80161837283CE
:10161000838394831F910F9108950F931F938C01DF
:10162000FC014583568367837087D2D5F8016183B7
:101630007283838394831F910F910895EF92FF9299
:101640000F931F93CF93DF93EC01C2D5E980FA800B
:101650000B811C812D813E814F8158856E197F0938
:10166000800B910B621773078407950710F480E0D5
:1016700017C0211531054105510519F088818823CE
:1016800031F0A6D569837A838B839C8308C02E0DA5
:101690003F1D401F511F29833A834B835C8381E0A8
:1016A000DF91CF911F910F91FF90EF900895FC0172
:1016B00013861586148687E090E01286319700978E
:1016C00011F00197FACF0895DC01862F90E0FC011C
:1016D000E656FF4FE491EC938A579F4FFC016491CB
:1016E000E62FF0E0EE0FFF1FE458FF4F8591949135
:1016F00012969C938E931197CD01D9CFDF92EF92E2
:10170000FF920F931F93FC01E08001811281F894F6
:10171000F80181818E2981838281DE2CD0948D21F4
:10172000828383E090E0ACD5F80181818D218183B3
:1017300089E090E0A5D5F8010081789485E390E0F8
:101740009FD580E010E0FF240E211F21012B09F01E
:1017500081E01F910F91FF90EF90DF900895EF923D
:10176000FF920F931F93CF93DF937C0101E010E072
:10177000C0E0D0E0C701C2DF8111102B000F21961D
:10178000C830D105B9F7812FDF91CF911F910F910B
:10179000FF90EF9008951F93CF93DF93FC0110818A
:1017A000C181D281912F909560FF11C0F8948A81F8
:1017B00089238A838981812B89838AE090E060D59F
:1017C0008A81812B8A83789487E390E010C0F89413
:1017D0008A8189238A838981812B898381E490E0AE
:1017E0004FD58A81812B8A83789485E090E048D513
:1017F000DF91CF911F910895CF92DF92EF92FF92E8
:101800000F931F93CF93DF938C01E42EFF24F39467
:10181000C0E0D0E0C62EDD2460E08F2D90E08C216A
:101820009D21892B09F061E0C801B5DFFF0C2196ED
:10183000C830D10589F7EE20A9F4F894D8011196A3
:10184000ED91FC91129791818C91809598239183D1
:101850001196ED91FC91129792818C91809598232D
:1018600092837894DF91CF911F910F91FF90EF9029
:10187000DF90CF9008956CEC40E0BECFDF92EF9206
:10188000FF920F931F93CF93DF93FC010081C181DF
:10189000D281F8948981D02ED0948D218983789437
:1018A0001DE7E02EFF24115039F182E090E0E8D4EA
:1018B000888190E08E219F21892BA9F3F8948A8159
:1018C0008D218A838981802B8983789484EF91E0AC
:1018D000D7D4F89489818D21898380E590E0D0D494
:1018E000888110E090E0E822F922EF2809F411E065
:1018F000789484EA91E0C4D4812FDF91CF911F9135
:101900000F91FF90EF90DF9008951F920F920FB606
:101910000F9211242F933F934F935F936F937F9375
:101920008F939F93AF93BF93EF93FF934091C60024
:10193000E091F005F091F105CF01019660E870E0CB
:10194000EDD59C018091F2059091F3052817390798
:1019500039F0E059FA4F40833093F1052093F005B8
:10196000FF91EF91BF91AF919F918F917F916F9177
:101970005F914F913F912F910F900FBE0F901F904D
:1019800018955F926F927F928F929F92AF92BF92C3
:10199000CF92DF92EF92FF920F931F93CF93DF933B
:1019A000EC015A016B0181E4A81682E4B8068FE0CD
:1019B000C80680E0D80608F06FC060E874E88EE1E1
:1019C00090E0A6019501BDD539014A01089461084E
:1019D0007108810891089694879477946794A4017C
:1019E00093012F5F3F4F4F4F5F4F74E0220F331F24
:1019F000441F551F7A95D1F760E074E284EF90E0C0
:101A0000A0D5CA01B9012FEF30E040E050E067D522
:101A1000A601950196D58FEF90E0821B930B1816C7
:101A200019061CF4522E509402C0522E539460E0BA
:101A300079E08DE390E0A601950183D521503040F7
:101A40004040504056954795379527952F5F3F4F1B
:101A50004F4F5F4F93E0220F331F441F551F9A953E
:101A6000D1F760E074E284EF90E06BD5CA01B90170
:101A70002FEF30E040E050E032D5A601950161D56E
:101A80008FEF90E0821B930B1816190614F4209523
:101A900001C02F5F2515E8F4E885F98581E090E025
:101AA0000A8802C0880F991F0A94E2F7808360E0D9
:101AB00079E08DE390E0A601950143D521503040B7
:101AC000404050405695479537952795822F232FB4
:101AD00005C0E885F9851082862D272DEC81FD81D2
:101AE0002083EE81FF818083EA85FB85208141E0B0
:101AF00050E0CA010E8402C0880F991F0A94E2F7D1
:101B0000282B2083EA85FB852081CA010F8402C02F
:101B1000880F991F0A94E2F7282B2083EA85FB851A
:101B20008081088802C0440F551F0A94E2F7842B75
:101B30008083DF91CF911F910F91FF90EF90DF9005
:101B4000CF90BF90AF909F908F907F906F905F905D
:101B50000895DC011296ED91FC911397E058FF4F28
:101B60008191919180589F4F20813181821B930BED
:101B700060E870E0D3C4DC011296ED91FC911397FC
:101B8000EE57FF4F2081318192918291E058F040D1
:101B90008217930719F42FEF3FEF05C0E20FF31FF1
:101BA0008081282F30E0C9010895CF93DF93DC01B5
:101BB0001296ED91FC911397EF01CE57DF4F4881BC
:101BC0005981E058FF4F80819181E058F04084179F
:101BD000950719F42FEF3FEF0BC0E40FF51F20819D
:101BE000CA01019660E870E099D49983888330E057
:101BF000C901DF91CF910895DC011296ED91FC911E
:101C00001397EE57FF4F80819181929382930895AD
:101C1000FC01A085B18521898C9190E0022E02C043
:101C2000959587950A94E2F780FFF6CF0484F585B1
:101C3000E02D6083089583EC91E09093F505809307
:101C4000F40580E795E09093F7058093F60585EC21
:101C500090E09093F9058093F80584EC90E09093E0
:101C6000FB058093FA0580EC90E09093FD0580934E
:101C7000FC0581EC90E09093FF058093FE0586ECD7
:101C800090E0909301068093000684E08093020622
:101C900083E08093030687E08093040685E08093C9
:101CA000050681E08093060608950F931F93CF9356
:101CB000DF938C01EB0109C02196D801ED91FC91D5
:101CC0000190F081E02DC801099568816623A1F794
:101CD000DF91CF911F910F910895EF92FF920F9393
:101CE0001F93CF93DF938C017B01EA010CC0D701D6
:101CF0006D917D01D801ED91FC910190F081E02D75
:101D0000C80109952197209791F7DF91CF911F91F5
:101D10000F91FF90EF900895DC01ED91FC9102800E
:101D2000F381E02D099508952F923F924F925F9293
:101D30006F927F928F929F92AF92BF92CF92DF92DB
:101D4000EF92FF920F931F93DF93CF93CDB7DEB740
:101D5000A0970FB6F894DEBF0FBECDBF1C016A017D
:101D60007B01411551056105710541F440E350E0E7
:101D700060E070E020E030E089D051C088249924F0
:101D80005401422E55246624772401E010E00C0F04
:101D90001D1F080D191DC701B601A3019201D1D362
:101DA000F80160830894811C911CA11CB11CC7011F
:101DB000B601A3019201C5D3C901DA016C017D010D
:101DC000C114D104E104F10401F781E0E82EF12C03
:101DD000EC0EFD1EE80CF91C3E010894611C711C00
:101DE000D501C4010197A109B1096C01C818D9082E
:101DF00013C0F601EE0DFF1D40814A3010F4405D26
:101E000001C0495C50E060E070E0C10120E030E0DA
:101E10003DD00894E108F1086E147F0451F7A096B4
:101E20000FB6F894DEBF0FBECDBFCF91DF911F91EB
:101E30000F91FF90EF90DF90CF90BF90AF909F9069
:101E40008F907F906F905F904F903F902F9008956C
:101E5000DC012115310541F4ED91FC910190F081F7
:101E6000E02D642F099508955FCFEF92FF920F93B5
:101E70001F939A01E62EFF2400E010E0B801A701AD
:101E8000E7DF1F910F91FF90EF900895EF92FF927F
:101E90000F931F93CF93DF93EC017A018B012115F0
:101EA000310541F4E881F9810190F081E02D642F42
:101EB000099519C02A303105A9F477FF0FC04DE20A
:101EC00050E060E070E020E030E0E0DF1095009549
:101ED000F094E094E11CF11C011D111DCE01B8012C
:101EE000A7012AE021DFDF91CF911F910F91FF9091
:101EF000EF9008950F931F938C014DE050E060E048
:101F000070E020E030E0C2DFC8014AE050E060E06D
:101F100070E020E030E0BADF1F910F9108950F9339
:101F20001F938C01F9DEC801E5DF1F910F91089521
:101F3000813041F0813018F08230D1F409C0109224
:101F40006E00089580916F008D7F80936F000895DB
:101F5000809170008D7F8093700081E08093B0004D
:101F60008091B100887F84608093B1001092B300AB
:101F700008951F920F920FB60F9211242F933F9343
:101F80004F935F936F937F938F939F93AF93BF9381
:101F9000EF93FF938091070690910806A0910906A0
:101FA000B0910A060097A105B10551F1E0910B0629
:101FB000F0910C06808190910D0689278083809195
:101FC000070690910806A0910906B0910A06181616
:101FD00019061A061B0604F580910706909108065B
:101FE000A0910906B0910A060197A109B109809351
:101FF000070690930806A0930906B0930A060CC042
:1020000082E096DFE0910B06F0910C0690818091C2
:102010000D06809589238083FF91EF91BF91AF9149
:102020009F918F917F916F915F914F913F912F91F0
:102030000F900FBE0F901F901895823000F5E82F7B
:10204000F0E0EE0FFF1FE25FF94F7183608388239A
:1020500019F08130A1F408C0809169008C7F842B35
:1020600080936900E89A089580916900440F551F94
:10207000440F551F837F842B80936900E99A08954C
:102080001F920F920FB60F9211242F933F934F93ED
:102090005F936F937F938F939F93AF93BF93EF93D0
:1020A000FF9380910E0690910F06892B29F0E09105
:1020B0000E06F0910F060995FF91EF91BF91AF9138
:1020C0009F918F917F916F915F914F913F912F9150
:1020D0000F900FBE0F901F9018951F920F920FB682
:1020E0000F9211242F933F934F935F936F937F939E
:1020F0008F939F93AF93BF93EF93FF9380911006BD
:1021000090911106892B29F0E0911006F0911106AB
:102110000995FF91EF91BF91AF919F918F917F9121
:102120006F915F914F913F912F910F900FBE0F9044
:102130001F901895AFD00E9453040E943406FDCF23
:102140001F920F920FB60F9211242F933F938F93EC
:102150009F93AF93BF938091160690911706A0911D
:102160001806B091190630911A060196A11DB11DED
:10217000232F2D5F2D3720F02D570196A11DB11D66
:1021800020931A068093160690931706A0931806BC
:10219000B09319068091120690911306A09114062F
:1021A000B09115060196A11DB11D80931206909362
:1021B0001306A0931406B0931506BF91AF919F919B
:1021C0008F913F912F910F900FBE0F901F901895F8
:1021D0008FB7F89420911606309117064091180693
:1021E000509119068FBFB901CA0108959FB7F8949D
:1021F0002091120630911306409114065091150655
:1022000086B5A89B06C08F3F21F02F5F3F4F4F4FF1
:102210005F4F9FBF542F432F322F2227280F311D8E
:10222000411D511D82E0220F331F441F551F8A9507
:10223000D1F7B901CA010895EF92FF920F931F934E
:10224000CF93DF937B018C01D1DFEB010DC0CEDF9B
:102250006C1B7D0B685E7340D0F30894E108F108B5
:1022600001091109C851DC4FE114F1040105110500
:1022700071F7DF91CF911F910F91FF90EF9008952B
:10228000019739F0880F991F880F991F02970197BE
:10229000F1F70895789484B5826084BD84B5816037
:1022A00084BD85B5826085BD85B5816085BDEEE65E
:1022B000F0E0808181608083E1E8F0E080818260ED
:1022C0008083808181608083E0E8F0E080818160AC
:1022D0008083E1EBF0E0808184608083E0EBF0E0DC
:1022E000808181608083EAE7F0E080818460808380
:1022F000808182608083808181608083808180682A
:1023000080831092C1000895982F8E3008F09E505F
:1023100097708091B8018295880F880F807C892BF7
:1023200080937C0080917A00806480937A00809111
:102330007A0086FDFCCF2091780040917900942F9F
:1023400080E030E0282B392BC9010895482F50E058
:10235000CA0186569F4FFC0124914A575F4FFA01EC
:1023600084918823C1F0E82FF0E0EE0FFF1FE859B9
:10237000FF4FA591B491662341F49FB7F8948C91D7
:10238000209582238C939FBF08959FB7F8948C91DA
:10239000822B8C939FBF0895482F50E0CA0182552D
:1023A0009F4FFC012491CA0186569F4FFC01349136
:1023B0004A575F4FFA019491992309F440C02223B0
:1023C00031F1233021F4809180008F7705C02430D3
:1023D00031F4809180008F7D8093800018C021307F
:1023E00019F484B58F7704C0223021F484B58F7D31
:1023F00084BD0DC0263021F48091B0008F7705C0D8
:10240000273029F48091B0008F7D8093B000E92FB0
:10241000F0E0EE0FFF1FEE58FF4FA591B491662339
:1024200041F49FB7F8948C91309583238C939FBF90
:1024300008959FB7F8948C91832B8C939FBF089538
:10244000682F70E0CB0182559F4FFC012491CB0196
:1024500086569F4FFC0144916A577F4FFB01949130
:10246000992319F420E030E038C0222331F12330E1
:1024700021F4809180008F7705C0243031F4809161
:1024800080008F7D8093800018C0213019F484B5BE
:102490008F7704C0223021F484B58F7D84BD0DC0B8
:1024A000263021F48091B0008F7705C0273029F4C1
:1024B0008091B0008F7D8093B000892F90E0880FCD
:1024C000991F84589F4FFC01A591B4918C9120E0F5
:1024D00030E0842311F021E030E0C9010895629FCB
:1024E000D001739FF001829FE00DF11D649FE00D0C
:1024F000F11D929FF00D839FF00D749FF00D659F6D
:10250000F00D9927729FB00DE11DF91F639FB00D6B
:10251000E11DF91FBD01CF011124089597FB092E7C
:1025200007260AD077FD04D049D006D000201AF43F
:10253000709561957F4F0895F6F7909581959F4F1F
:102540000895A1E21A2EAA1BBB1BFD010DC0AA1FF4
:10255000BB1FEE1FFF1FA217B307E407F50720F00C
:10256000A21BB30BE40BF50B661F771F881F991F87
:102570001A9469F760957095809590959B01AC01D0
:10258000BD01CF01089597FB092E05260ED057FDFA
:1025900004D0D7DF0AD0001C38F450954095309510
:1025A00021953F4F4F4F5F4F0895F6F790958095D7
:1025B000709561957F4F8F4F9F4F0895AA1BBB1B4E
:1025C00051E107C0AA1FBB1FA617B70710F0A61B33
:1025D000B70B881F991F5A95A9F780959095BC0154
:1025E000CD010895EE0FFF1F0590F491E02D0994A1
:1025F000F999FECF92BD81BDF89A992780B50895CB
:10260000262FF999FECF1FBA92BD81BD20BD0FB60E
:10261000F894FA9AF99A0FBE01960895F894FFCFAC
:102620005B43204D002046002050002044005D2ADE
:10263000007B433A436F6E74726F6C4865617465DA
:102640007220737461727465647D2A000A090B0C30
:10265000015B433A302073303030303030302B3F24
:102660003F2E3F20642B302E3030207030302E3003
:102670002071302E302077303020693030302D30CE
:10268000302E3020613030302B30302E30207530FD
:10269000303030303030305D2A200021433D0000A2
:1026A000000000000000000000000000000000002A
:1026B000000000000000000000000000000000001A
:1026C000000000000000000000000000000000000A
:1026D00000000000000000030103070605040800D5
:1026E000000000080E550E6D0EA90DD50DFC0DBB9A
:0226F0000D00DB
:00000001FF
