:1000000065C000000C9473100C94A01087C0000011
:1000100085C0000083C0000081C000000C94EC0F7C
:100020007DC000007BC0000079C0000077C00000E8
:1000300075C0000073C0000071C000006FC00000F8
:100040000C94D3106BC000000C94B80C67C0000077
:1000500065C0000063C0000061C000005FC0000018
:100060005DC000005BC0000000000000240027000D
:100070002A0000000000250028002B0000000000DE
:1000800023002600290004040404040404040202DA
:100090000202020203030303030301020408102007
:1000A0004080010204081020010204081020000012
:1000B0000007000201000003040600000000000029
:1000C00000008F002802A008D8084E0E11241FBE81
:1000D000CFEFD8E0DEBFCDBF11E0A0E0B1E0E6E8B1
:1000E000F6E202C005900D92A43DB107D9F716E0E3
:1000F000A4EDB1E001C01D92AD31B107E1F710E010
:10010000CCECD0E004C02297FE010E942713C23C31
:10011000D107C9F70E94CD100C94411371CF84ED23
:1001200091E04CE251E060E070E00C94400B809173
:100130002F0161E00E94D9118091300161E00E949D
:10014000D9118091310161E00E94D9118091320171
:1001500061E00C94D911FF920F931F93182FE82F91
:10016000F0E0E25DFE4FF08000E015C00E94BE08A6
:100170008117E9F084ED91E00E94510B8823B9F4D6
:10018000F5CFFCD78117E1F084ED91E00E94510B8F
:100190008823B1F4F6CFF2D78117A9F08F2D61E053
:1001A0000E94FF1184ED91E00E94220BDFCF8F2D82
:1001B00060E00E94FF1184ED91E00E94220BE1CFEC
:1001C0000F5F033041F71F910F91FF900895DC01FD
:1001D0008FE76F3F780709F450C059968C91599773
:1001E0008A3031F557964C915797E42FF0E03D96C1
:1001F000EE0FFF1FEA0FFB1F9E968D919C919F971C
:1002000020813181821B930B9F969C938E939E97A6
:100210004F5F57964C9357974A3019F457961C9254
:10022000579759968C915997815059968C93599715
:100230009E968D919C919F97860F971F9F969C935A
:100240008E939E9758968C915897E82FF0E03D96A4
:10025000EE0FFF1FEA0FFB1F718360838F5F5896BD
:100260008C9358978A3019F458961C92589759963F
:100270008C9159978F5F59968C9308950F931F9384
:10028000182F092F0E94710C882351F0812F902F75
:100290000E946E0C812F902F64E440E00E942F0C8E
:1002A0001F910F910895EADF68EE73E080E090E01F
:1002B0000C944F11FF920F931F93082FF92E0E9459
:1002C000710C882319F42FEF3FE717C0802F9F2D63
:1002D0000E946E0C802F9F2D6EEB40E00E942F0C31
:1002E000802F9F2D0E94E20B182F802F9F2D0E94A0
:1002F000E20B382F20E0210F311DC9011F910F9112
:10030000FF900895CF93DF93EC010E960E94510B5E
:10031000882339F0CE01CEDFBC01CE0158DFCE01FB
:10032000ADDFDF91CF9108950F931F938C010E9451
:10033000970BC8010E9648EE53E060E070E021E0B4
:100340000E942E0BF801178A108E118E17A616A682
:100350001F910F9108950F931F9306EF15E0C801A9
:1003600060E071E00E94BF0EB1D6682FC8014AE07C
:1003700050E00E94680FC80165E071E00E94BF0E66
:10038000A1D6682FC8014AE050E00E94680FC8015A
:1003900068E071E00E94BF0E91D6682FC8014AE064
:1003A00050E00E94680FC8016BE071E00E94BF0E30
:1003B00081D6682FC8014AE050E00E94680FC8014A
:1003C0006EE071E00E94BF0E71D6682FC8014AE04E
:1003D00050E00E94680FC80161E171E00E94C20F05
:1003E0001F910F9108951F93FC01118D112319F492
:1003F0002FEF3FE719C066A577A5882777FD809581
:10040000982F24E630E040E050E00E94A212212F15
:1004100030E044E0220F331F4A95E1F7442737FDCF
:100420004095542F0E94F612C9011F9108959C0116
:10043000181619061CF08BEF9FEF02C085E090E0C4
:10044000820F931F6AE070E00E94C112CB010895F1
:100450008DED91E060E168DF8CEF94E048E95AE3CC
:1004600060E070E021E00E942E0B85E095E048E816
:1004700053E160E070E00E94400B80E003C0EA338B
:1004800049F08F5FE82FF0E0EC5CFE4FE081EE2357
:10049000B1F780E08F5F80930E0580E003C0E33703
:1004A00049F08F5FE82FF0E0EC5CFE4FE081EE2337
:1004B000B1F780E08F5F80930F0580E003C0EA32E0
:1004C00049F08F5FE82FF0E0EC5CFE4FE081EE2317
:1004D000B1F780E08093100590E003C0EB3249F063
:1004E0009F5FE92FF0E0EC5CFE4FE081EE23B1F777
:1004F00090E090931105892F03C0E03249F08F5F9F
:10050000E82FF0E0EC5CFE4FE081EE23B1F780E0F5
:10051000891B8093120580E003C0E43649F08F5FA9
:10052000E82FF0E0EC5CFE4FE081EE23B1F780E0D5
:10053000982F9F5F90931305892F03C0E03249F0F5
:100540008F5FE82FF0E0EC5CFE4FE081EE23B1F727
:1005500080E0891B8093140580E003C0E03749F0F8
:100560008F5FE82FF0E0EC5CFE4FE081EE23B1F707
:1005700080E0982F9F5F90931505892F03C0E0328C
:1005800049F08F5FE82FF0E0EC5CFE4FE081EE2356
:10059000B1F780E0891B8093160580E003C0E13746
:1005A00049F08F5FE82FF0E0EC5CFE4FE081EE2336
:1005B000B1F780E0982F9F5F90931705892F03C0B4
:1005C000E03249F08F5FE82FF0E0EC5CFE4FE08115
:1005D000EE23B1F780E0891B8093180580E003C00B
:1005E000E73749F08F5FE82FF0E0EC5CFE4FE081E9
:1005F000EE23B1F780E0982F9F5F90931905892F24
:1006000003C0E03249F08F5FE82FF0E0EC5CFE4F72
:10061000E081EE23B1F780E0891B80931A0580E02A
:1006200003C0E93649F08F5FE82FF0E0EC5CFE4F45
:10063000E081EE23B1F780E0982F9F5F90931B0538
:10064000892F03C0ED3249F08F5FE82FF0E0EC5CBA
:10065000FE4FE081EE23B1F780E0891B80931C05FB
:10066000890F80931D05982F03C0E03249F09F5FEA
:10067000E92FF0E0EC5CFE4FE081EE23B1F790E073
:10068000981B90931E0580E003C0E13649F08F5F10
:10069000E82FF0E0EC5CFE4FE081EE23B1F780E064
:1006A000982F9F5F90931F05892F03C0EB3249F06D
:1006B0008F5FE82FF0E0EC5CFE4FE081EE23B1F7B6
:1006C00080E0891B80932005890F80932105982F56
:1006D00003C0E03249F09F5FE92FF0E0EC5CFE4F91
:1006E000E081EE23B1F790E0981B9093220580E023
:1006F00003C0E53749F08F5FE82FF0E0EC5CFE4F78
:10070000E081EE23B1F780E0982F9F5F909323055F
:10071000892F03C0ED3549F08F5FE82FF0E0EC5CE6
:10072000FE4FE081EE23B1F780E0891B8093240522
:100730008BE295E040ED57E060E070E0A1D785E303
:1007400095E048EE53E060E070E021E087C79F92BB
:10075000AF92BF92CF92DF92EF92FF920F931F93CF
:10076000CF93DF930E941B11C62EB72EA82E992E71
:1007700075D5D82E8DED91E036DEEC012FE78F3F59
:10078000920709F482C0EC2CFB2C0A2D192DDD20D8
:1007900011F0DD24D39480912102882379F4DD20A7
:1007A000A1F5E0920D02F0920E0200930F02109359
:1007B0001002D0931202C093110202C0DD2029F56D
:1007C00080910D0290910E02A0910F02B091100243
:1007D000A8019701281B390B4A0B5B0BCA01B90111
:1007E00020E63AEE40E050E00E94F6123093140208
:1007F000209313028091110290911202AE01481BC6
:10080000590B5093160240931502809122028823BF
:1008100079F4DD2089F1E0921702F092180200933A
:10082000190210931A02D0931C02C0931B0202C03B
:10083000DD2011F18091170290911802A091190208
:10084000B0911A02E81AF90A0A0B1B0BC801B7018A
:1008500020E63AEE40E050E00E94F61230931E028D
:1008600020931D0280911B0290911C02C81BD90B82
:10087000D0932002C0931F0210922102DD2019F4B0
:1008800081E080932102D0922202DF91CF911F91CB
:100890000F91FF90EF90DF90CF90BF90AF909F901F
:1008A0000895E091BA01E33051F0F0E0E258FE4FD4
:1008B00010828EE791E053D483E08093BA010895CB
:1008C00047D484E191E04BD48DED91E0ECDC2FD561
:1008D0002EDC41CD1F9352D4182F882329F0F6D354
:1008E000181711F0812FDDD31F9108950F931F93D7
:1008F000CF93DF93082FEB01142F8091BA0190E082
:10090000C5970CF0CEDF6091BA01E62FF0E0E25817
:10091000FE4F00836F5F6093BA0170E062587E4FB4
:100920001066CE0146E0212FBDD59091BA01980FF7
:100930009093BA01DF91CF911F910F910895FF928B
:100940000F931F938B01F42E72DD0C5C1E4FB801C8
:100950004F2D21E1A7D51F910F91FF9008958F9200
:100960009F92AF92BF92CF92DF92EF92FF920F933E
:100970001F93982EF89402D4182F53D47894E091B2
:100980000E05F0E0EC5CFE4F105D108390910F05BA
:10099000E92FF0E0EC5CFE4F20E030E0482F50E023
:1009A000CA01022E02C0959587950A94E2F78170DC
:1009B000805D81932F5F3F4F2730310589F78DEDA3
:1009C00091E011DD2FE78F3F920739F0609111051B
:1009D0004091120570E050E0B2DF6091130570E0C5
:1009E0006C5C7E4F8091FA049091FB044091140559
:1009F00022E158D56091190570E06C5C7E4F8091C2
:100A0000F8049091F90440911A0520E04BD56091CB
:100A10001B0570E06C5C7E4F809113029091140274
:100A200040911C0520E03ED560911D0540911E05BA
:100A3000809115029091160270E050E080DF609185
:100A40001F0570E06C5C7E4F80911D0290911E022C
:100A50004091200520E026D5609121054091220596
:100A600080911F029091200270E050E068DF4DD32A
:100A70006091150570E06C5C7E4F4091160521E099
:100A800011D528D36091170570E06C5C7E4F4091C2
:100A9000180521E007D50E941B117B018C01609194
:100AA000290570912A052091250530912605409150
:100AB000270550912805D801C701821B930BA40B71
:100AC000B50B04C080509C45A642B540B62EA72E5B
:100AD000822EF32FD42EC52E6F5F7F4F2050344AC5
:100AE000494D5A4F8130ECE59E07E6E2AE07E5E05E
:100AF000BE0744F7B0922905A0922A0580922505E9
:100B0000F0932605D0922705C09228056091230511
:100B100070E06C5C7E4F4091240546508B2D9A2DE1
:100B200020E0C0D48091250590912605A09127054D
:100B3000B0912805E81AF90A0A0B1B0BC801B70186
:100B400028EE33E040E050E00E94F612122F032F0F
:100B5000F42EE52E622F732F842F952F2CE330E097
:100B600040E050E00E94F612DC01CB012091230509
:100B70006091240570E0620F711D6E5C7E4F42E053
:100B800020E090D4612F702F8F2D9E2D2CE330E02C
:100B900040E050E00E94F612122F032FF42EE52EB3
:100BA000622F732F842F952F2CE330E040E050E02C
:100BB0000E94F612DC01CB012091230560912405EF
:100BC00070E0620F711D605D7E4F42E020E06AD4EC
:100BD000612F702F8F2D9E2D2CE330E040E050E0F0
:100BE0000E94F612DA01C9012091230560912405C3
:100BF00070E0620F711D625D7E4F42E020E052D4D2
:100C000080911005992011F4E82F12C0E82FF0E030
:100C1000EC5CFE4F9082982F9F5F2AE2921639F08B
:100C2000E92FF0E0EC5CFE4F8AE280839F5FE92FC2
:100C3000F0E0EC5CFE4F108284E391E090D285E01E
:100C400095E000D5109233011F910F91FF90EF9026
:100C5000DF90CF90BF90AF909F908F900895813399
:100C600078F0853340F08F3319F0833449F402C0B3
:100C70008FE375CE70CB80536EDA2CDE83E66FCEB9
:100C80000895DF92EF92FF920F931F93CF93DF931C
:100C90008DED91E037DB5BDDEAD2882311F089E648
:100CA0005EDE6CD2082F12D2002369F0081759F0CB
:100CB000833031F4013021F44EDA0CDE82E702C0D9
:100CC00009DE82E64CDE5AD2082FFCD1D82E8823CA
:100CD00001F10430F1F40E941B117B018C0184E0CE
:100CE00050D2E61AF70A080B190B6D2D70E080E060
:100CF00090E020E63AEE40E050E00E94A2126E152D
:100D00007F05800791072CF481E025DAE3DD88E692
:100D100026DE8DED91E067DB7C012FE78F3F9207A8
:100D200009F47CC08CEF94E0BCD4882309F476C02D
:100D300095D2282F811121E08091F6049091F7043B
:100D4000820F911D9093F7048093F6048091F5042F
:100D50008F5F8093F5048091F40490E08C01000F84
:100D6000111F080F191F0D5D1D4FF80120838DED18
:100D700091E039DBF80192838183C091F604D09130
:100D8000F7040091F5048CE390E09C01C29FC00140
:100D9000C39F900DD29F900D1124602F70E00E9490
:100DA000C1127093F9046093F8044091F304242F66
:100DB00030E0F901EE0FFF1FE20FF31FED5DFD4F75
:100DC00081819281E81AF90AF092FB04E092FA0418
:100DD0008091F4048F5F8093F404803F11F41092AB
:100DE000F4048091F4048417C9F4F901EE0FFF1F95
:100DF000E20FF31FED5DFD4F8081C81BD109D09339
:100E0000F704C093F604842F8F5F8093F304803F30
:100E100011F41092F30401500093F50485E095E07D
:100E200040D4882329F08091330181118AE297DD33
:100E30008BE295E036D4882309F441C08DED91E032
:100E4000D2DA3FE78F3F930729F0F1DABC0181E660
:100E500041E14CDD6091FA047091FB0482E642E1CD
:100E600045DD6091F8047091F90483E640E03EDDD1
:100E700085D1682F84E670E040E038DD91D1682F9D
:100E800085E670E040E032DDE9D1682F86E670E06B
:100E900040E02CDD3AD1BC0187E641E027DD1AD1E4
:100EA000BC0188E641E022DDFCDC8BE295E040E617
:100EB0005AEE60E070E0C0D38BE295E0C3D350D02F
:100EC000CEDE6ED1982F811191E080913405891783
:100ED00041F090933405992311F48EE601C085E624
:100EE0003EDDECD0813001F1823001F5E3D0F82E07
:100EF000DDD0082FFF20E1F08823D1F0AFD1882387
:100F000051F0202F30E080911D0290911E02281791
:100F1000390774F40BC02F2D30E0809113029091AB
:100F200014022817390724F481E001C080E048D179
:100F300085E395E0B6D3882359F060E080913E05C3
:100F4000882309F461E060933E058DE00E94FF1163
:100F5000DF91CF911F910F91FF90EF90DF90089557
:100F60000F931F930AE011E07DC086EF95E050D605
:100F7000982F20913F05243409F43FC0253440F4D4
:100F80002130A1F0213060F0223009F06BC016C092
:100F9000283499F1203589F1263409F063C02DC039
:100FA000813209F05FC010933F055CC0833411F0BB
:100FB00080E001C082E080933F0554C08434C1F0DA
:100FC000853458F4813308F44BC0853370F08F3387
:100FD00061F0833409F044C008C0883449F080359A
:100FE00039F0863409F03CC003C010923F0541C07F
:100FF00090933F051092400535C0892F80538A3069
:1010000050F480914005809F802D11248053890FDA
:101010008093400527C09D3021F09A3011F0913225
:10102000F9F4263471F0273418F42434A9F411C0EB
:10103000283419F0203581F408C0809140052CD067
:101040000BC08091400523D007C0809140051AD085
:1010500003C08091400511D010923F0593E409C070
:1010600010923F0586EF95E0A7D5892B09F07DCF3B
:1010700090E0892F1F910F910895682F84E090E0F0
:101080000C943313682F83E090E00C943313682F93
:1010900082E090E00C943313682F85E090E00C948C
:1010A0003313682F81E090E00C94331384E090E0D8
:1010B0000C942B1383E090E00C942B1382E090E0CF
:1010C0000C942B1385E090E00C942B1381E090E0BE
:1010D0000C942B138FE00E94B711AA2797FDA095BF
:1010E000BA2FBC01CD012DEE3FEF4FEF5FEF0E9415
:1010F000A2126959714B8F4F9F4F28EE33E040E0A9
:1011000050E00E94F612C90108958EE00E94B711C6
:10111000AA2797FDA095BA2FBC01CD012CEB3EEF7D
:101120004FEF5FEF0E94A212635F7A478A4F9F4F93
:1011300028EE33E040E050E00E94F612C901089525
:1011400081E495E04CE251E060E070E021E086C28D
:1011500086EF95E040E051EE60E070E045C4CF934B
:10116000DF93EC0181E495E09CD28823D9F386EFEC
:1011700095E0BE0107D7DF91CF91089580914B058F
:101180000895E82FF0E0EE0FFF1FEE0FFF1FE45B66
:10119000FA4F2081318142815381B901CA010895FA
:1011A0008091620590E0823008F091E0892F0895E7
:1011B00089E695E044E650E060E070E021E04EC250
:1011C000982F809168059817A1F09093680599234E
:1011D00041F081E161E00E94D91181E161E00C946C
:1011E000FF1181E160E00E94D91181E160E00C947F
:1011F000FF110895809167058F3F71F481E10E948E
:10120000B71120E0853691050CF021E0822F2111E5
:1012100081E08093670503C0811181E0282F822F30
:1012200008951F9390914A058091620520E030E077
:10123000823010F021E030E044E0220F331F4A9565
:10124000E1F7192F1F7E122B80916805882311F476
:10125000D1DF81111064812F1F910895E2DF90E0AA
:1012600055E0959587955A95E1F783700895EF922B
:10127000FF920F931F93DFD77B018C0189E695E0E6
:1012800010D2882311F420E01FC0F89480916005EB
:1012900090916105892B09F044C080914B0588230A
:1012A00009F43FC0E0924C05F0924D0500934E05C5
:1012B00010934F0510924B0582E0809362058FEFEB
:1012C0008093670521E07894F8948091630590916C
:1012D0006405A0916505B0916605B801A701481B9A
:1012E000590B6A0B7B0BDB01CA01815A9F40A0405E
:1012F000B04084F060E670EF8FEF9FEFE60EF71ED0
:10130000081F191FE0926305F092640500936505BC
:10131000109366057894822F1F910F91FF90EF90A4
:101320000895109261051092600520E0CCCF83D71C
:10133000605A7F40804090406093630570936405DD
:10134000809365059093660580E06AEA79E042E063
:1013500050E0A6C6CF92DF92EF92FF920F931F93B9
:10136000CF93DF9310E0C0E0D0E071E0C72ED12C26
:10137000E12CF12CFE01E454FE4F80810E945312B7
:10138000892B61F4D701C6010C2E04C0880F991F68
:10139000AA1FBB1F0A94D2F7182B0CC0D701C60195
:1013A0000C2E04C0880F991FAA1FBB1F0A94D2F7E6
:1013B000809518232196C630D105E1F680914A0523
:1013C000811709F45AC010934A0535D79B01AC0127
:1013D000E12FF0E014FF23C0809163059091640534
:1013E000A0916505B091660579018A01E81AF90AAC
:1013F0000A0B1B0BD801C701805D9740A040B0408D
:1014000014F482E001C081E08093620520936305BB
:1014100030936405409365055093660502C01092B1
:101420006205A0914B0560E070E0EF70F070C1E0E4
:10143000D0E0CE01062E02C0880F991F0A94E2F771
:10144000E817F90719F4A62FAF5F05C06F5F7F4F4C
:101450006430710571F780914B058A1771F0EA2F9E
:10146000F0E0EE0FFF1FEE0FFF1FE45BFA4F20834B
:10147000318342835383A0934B0580916005909103
:101480006105019690936105809360058FEF8093CD
:101490006705DF91CF911F910F91FF90EF90DF9043
:1014A000CF9008952F923F924F925F926F927F92CA
:1014B0008F929F92AF92BF92CF92DF92EF92FF9264
:1014C0000F931F93DF93CF9300D000D0CDB7DEB73B
:1014D000FC015B01842E022F10E0C8018072907025
:1014E0009A83898325FD03C07BE2C72E02C060E298
:1014F000C62EF7FF05C0F095E195FF4F5DE2C52EC2
:10150000C8018F709070892B11F4992404C04FE0AA
:10151000942E92229394882D90E0D501A80FB91FA4
:10152000BC83AB8340E0DD2431E0E32EF12C292C99
:10153000332420E1422E512C402251223C010894B8
:10154000610871083EC02B813C81215030403C83B2
:101550002B838D2D90E0E214F30429F42EE2AB816D
:10156000BC812C9329C0A981BA81AB2B71F0309733
:1015700061F49D1450F4AB81BC81CC92B0E2CB16E7
:10158000E1F04F5F80E2C82E18C04114510439F0D9
:101590008615970521F4AB81BC81CC920DC0CF019B
:1015A0006AE070E0EED7805DAB81BC818C93CF01A7
:1015B0006AE070E0E6D7FB014F5FD3940894E11C2A
:1015C000F11CD81408F4BFCF06FF1EC04815E0F484
:1015D000A82DB0E0A41BB109AA0DBB1D20E030E08E
:1015E00007C0F501E20FF31F8D9180832F5F3F4FFE
:1015F0002417B8F3842F90E205C0F501E80FF11D20
:1016000090838F5F8815C8F3842F0F900F900F90F1
:101610000F90CF91DF911F910F91FF90EF90DF908E
:10162000CF90BF90AF909F908F907F906F905F9082
:101630004F903F902F900895FC0145835683678318
:10164000708708950F931F938C01F5D5F80161837E
:101650007283838394831F910F9108950F931F9337
:101660008C01FC0120834583568367837087E3D513
:10167000F80161837283838394831F910F9108958E
:101680000F931F938C01FC014583568367837087FA
:10169000D2D5F80161837283838394831F910F9164
:1016A0000895EF92FF920F931F93CF93DF93EC0176
:1016B000C2D5E980FA800B811C812D813E814F814A
:1016C00058856E197F09800B910B62177307840789
:1016D000950710F480E017C021153105410551052B
:1016E00019F08881882331F0A6D569837A838B83AA
:1016F0009C8308C02E0D3F1D401F511F29833A8334
:101700004B835C8381E0DF91CF911F910F91FF901C
:10171000EF900895FC0113861586148687E090E00B
:1017200012863197009711F00197FACF0895DC01E6
:10173000862F90E0FC01E656FF4FE491EC938A5728
:101740009F4FFC016491E62FF0E0EE0FFF1FE4587D
:10175000FF4F8591949112969C938E931197CD0192
:10176000D9CFDF92EF92FF920F931F93FC01E0809D
:1017700001811281F894F80181818E29818382810F
:10178000DE2CD0948D21828383E090E0ACD5F801EB
:1017900081818D21818389E090E0A5D5F8010081C8
:1017A000789485E390E09FD580E010E0FF240E213F
:1017B0001F21012B09F081E01F910F91FF90EF9005
:1017C000DF900895EF92FF920F931F93CF93DF93D3
:1017D0007C0101E010E0C0E0D0E0C701C2DF811170
:1017E000102B000F2196C830D105B9F7812FDF915A
:1017F000CF911F910F91FF90EF9008951F93CF937A
:10180000DF93FC011081C181D281912F909560FFFF
:1018100011C0F8948A8189238A838981812B8983E5
:101820008AE090E060D58A81812B8A83789487E36F
:1018300090E010C0F8948A8189238A838981812B62
:10184000898381E490E04FD58A81812B8A837894C3
:1018500085E090E048D5DF91CF911F910895CF9218
:10186000DF92EF92FF920F931F93CF93DF938C0140
:10187000E42EFF24F394C0E0D0E0C62EDD2460E027
:101880008F2D90E08C219D21892B09F061E0C8010A
:10189000B5DFFF0C2196C830D10589F7EE20A9F4F9
:1018A000F894D8011196ED91FC91129791818C9149
:1018B0008095982391831196ED91FC9112979281D6
:1018C0008C918095982392837894DF91CF911F918A
:1018D0000F91FF90EF90DF90CF9008956CEC40E077
:1018E000BECFDF92EF92FF920F931F93CF93DF93C0
:1018F000FC010081C181D281F8948981D02ED094DD
:101900008D21898378941DE7E02EFF24115039F151
:1019100082E090E0E8D4888190E08E219F21892B9D
:10192000A9F3F8948A818D218A838981802B898308
:10193000789484EF91E0D7D4F89489818D218983BC
:1019400080E590E0D0D4888110E090E0E822F92290
:10195000EF2809F411E0789484EA91E0C4D4812F4F
:10196000DF91CF911F910F91FF90EF90DF9008953D
:101970001F920F920FB60F9211242F933F934F9304
:101980005F936F937F938F939F93AF93BF93EF93E7
:10199000FF934091C600E091F205F091F305CF016D
:1019A000019660E870E0EDD59C018091F40590917E
:1019B000F5052817390739F0EE58FA4F4083309370
:1019C000F3052093F205FF91EF91BF91AF919F91A5
:1019D0008F917F916F915F914F913F912F910F90D8
:1019E0000FBE0F901F9018955F926F927F928F920B
:1019F0009F92AF92BF92CF92DF92EF92FF920F939E
:101A00001F93CF93DF93EC015A016B0181E4A81679
:101A100082E4B8068FE0C80680E0D80608F06FC000
:101A200060E874E88EE190E0A6019501BDD539012A
:101A30004A01089461087108810891089694879476
:101A400077946794A40193012F5F3F4F4F4F5F4FEF
:101A500074E0220F331F441F551F7A95D1F760E0C1
:101A600074E284EF90E0A0D5CA01B9012FEF30E015
:101A700040E050E067D5A601950196D58FEF90E044
:101A8000821B930B181619061CF4522E509402C098
:101A9000522E539460E079E08DE390E0A601950129
:101AA00083D521503040404050405695479537955A
:101AB00027952F5F3F4F4F4F5F4F93E0220F331F0C
:101AC000441F551F9A95D1F760E074E284EF90E0CF
:101AD0006BD5CA01B9012FEF30E040E050E032D5BC
:101AE000A601950161D58FEF90E0821B930B18162C
:101AF000190614F4209501C02F5F2515E8F4E88538
:101B0000F98581E090E00A8802C0880F991F0A9445
:101B1000E2F7808360E079E08DE390E0A601950133
:101B200043D5215030404040504056954795379519
:101B30002795822F232F05C0E885F9851082862DF1
:101B4000272DEC81FD812083EE81FF818083EA8552
:101B5000FB85208141E050E0CA010E8402C0880F5D
:101B6000991F0A94E2F7282B2083EA85FB852081C0
:101B7000CA010F8402C0880F991F0A94E2F7282B2C
:101B80002083EA85FB858081088802C0440F551FA9
:101B90000A94E2F7842B8083DF91CF911F910F91FC
:101BA000FF90EF90DF90CF90BF90AF909F908F907D
:101BB0007F906F905F900895DC011296ED91FC91FB
:101BC0001397E058FF4F8191919180589F4F20814A
:101BD0003181821B930B60E870E0D3C4DC01129664
:101BE000ED91FC911397EE57FF4F20813181929137
:101BF0008291E058F0408217930719F42FEF3FEFDE
:101C000005C0E20FF31F8081282F30E0C90108953D
:101C1000CF93DF93DC011296ED91FC911397EF01C6
:101C2000CE57DF4F48815981E058FF4F8081918125
:101C3000E058F0408417950719F42FEF3FEF0BC0E1
:101C4000E40FF51F2081CA01019660E870E099D485
:101C50009983888330E0C901DF91CF910895DC0139
:101C60001296ED91FC911397EE57FF4F8081918171
:101C7000929382930895FC01A085B18521898C916E
:101C800090E0022E02C0959587950A94E2F780FFB6
:101C9000F6CF0484F585E02D6083089586EC91E00D
:101CA0009093F7058093F60582E795E09093F90508
:101CB0008093F80585EC90E09093FB058093FA05FE
:101CC00084EC90E09093FD058093FC0580EC90E01F
:101CD0009093FF058093FE0581EC90E090930106C0
:101CE0008093000686EC90E09093030680930206B2
:101CF00084E08093040683E08093050687E0809368
:101D0000060685E08093070681E080930806089523
:101D10000F931F93CF93DF938C01EB0109C02196A2
:101D2000D801ED91FC910190F081E02DC801099559
:101D300068816623A1F7DF91CF911F910F910895DC
:101D4000EF92FF920F931F93CF93DF938C017B0150
:101D5000EA010CC0D7016D917D01D801ED91FC9194
:101D60000190F081E02DC80109952197209791F706
:101D7000DF91CF911F910F91FF90EF900895DC01BB
:101D8000ED91FC910280F381E02D099508952F9249
:101D90003F924F925F926F927F928F929F92AF92FB
:101DA000BF92CF92DF92EF92FF920F931F93DF9338
:101DB000CF93CDB7DEB7A0970FB6F894DEBF0FBEB6
:101DC000CDBF1C016A017B014115510561057105FB
:101DD00041F440E350E060E070E020E030E089D082
:101DE00051C0882499245401422E55246624772416
:101DF00001E010E00C0F1D1F080D191DC701B601F1
:101E0000A3019201D1D3F80160830894811C911C35
:101E1000A11CB11CC701B601A3019201C5D3C90120
:101E2000DA016C017D01C114D104E104F10401F770
:101E300081E0E82EF12CEC0EFD1EE80CF91C3E01B1
:101E40000894611C711CD501C4010197A109B10955
:101E50006C01C818D90813C0F601EE0DFF1D4081B2
:101E60004A3010F4405D01C0495C50E060E070E031
:101E7000C10120E030E03DD00894E108F1086E1483
:101E80007F0451F7A0960FB6F894DEBF0FBECDBF0A
:101E9000CF91DF911F910F91FF90EF90DF90CF9046
:101EA000BF90AF909F908F907F906F905F904F907A
:101EB0003F902F900895DC012115310541F4ED91FB
:101EC000FC910190F081E02D642F099508955FCF7A
:101ED000EF92FF920F931F939A01E62EFF2400E0EA
:101EE00010E0B801A701E7DF1F910F91FF90EF907D
:101EF0000895EF92FF920F931F93CF93DF93EC011E
:101F00007A018B012115310541F4E881F9810190B5
:101F1000F081E02D642F099519C02A303105A9F40C
:101F200077FF0FC04DE250E060E070E020E030E06D
:101F3000E0DF10950095F094E094E11CF11C011D88
:101F4000111DCE01B801A7012AE021DFDF91CF9159
:101F50001F910F91FF90EF9008950F931F938C01A5
:101F60004DE050E060E070E020E030E0C2DFC8010A
:101F70004AE050E060E070E020E030E0BADF1F911E
:101F80000F9108950F931F938C01F9DEC801E5DFCF
:101F90001F910F910895813041F0813018F0823007
:101FA000D1F409C010926E00089580916F008D7F6A
:101FB00080936F000895809170008D7F80937000F2
:101FC00081E08093B0008091B100887F846080932D
:101FD000B1001092B30008951F920F920FB60F92A6
:101FE00011242F933F934F935F936F937F938F931E
:101FF0009F93AF93BF93EF93FF93809109069091C6
:102000000A06A0910B06B0910C060097A105B10538
:1020100051F1E0910D06F0910E06808190910F062E
:10202000892780838091090690910A06A0910B066A
:10203000B0910C06181619061A061B0604F58091B5
:10204000090690910A06A0910B06B0910C06019723
:10205000A109B1098093090690930A06A0930B0683
:10206000B0930C060CC082E096DFE0910D06F09173
:102070000E06908180910F06809589238083FF91C1
:10208000EF91BF91AF919F918F917F916F915F91F0
:102090004F913F912F910F900FBE0F901F90189569
:1020A000823000F5E82FF0E0EE0FFF1FE05FF94F00
:1020B00071836083882319F08130A1F408C0809176
:1020C00069008C7F842B80936900E89A0895809141
:1020D0006900440F551F440F551F837F842B809345
:1020E0006900E99A08951F920F920FB60F9211247A
:1020F0002F933F934F935F936F937F938F939F9310
:10210000AF93BF93EF93FF938091100690911106C8
:10211000892B29F0E0911006F09111060995FF91A5
:10212000EF91BF91AF919F918F917F916F915F914F
:102130004F913F912F910F900FBE0F901F901895C8
:102140001F920F920FB60F9211242F933F934F932C
:102150005F936F937F938F939F93AF93BF93EF930F
:10216000FF938091120690911306892B29F0E0913C
:102170001206F09113060995FF91EF91BF91AF916F
:102180009F918F917F916F915F914F913F912F918F
:102190000F900FBE0F901F901895AFD00E94600453
:1021A0000E944106FDCF1F920F920FB60F9211248D
:1021B0002F933F938F939F93AF93BF938091180674
:1021C00090911906A0911A06B0911B0630911C0639
:1021D0000196A11DB11D232F2D5F2D3720F02D5706
:1021E0000196A11DB11D20931C06809318069093A3
:1021F0001906A0931A06B0931B06809114069091BD
:102200001506A0911606B09117060196A11DB11DE5
:102210008093140690931506A0931606B0931706A4
:10222000BF91AF919F918F913F912F910F900FBED2
:102230000F901F9018958FB7F89420911806309141
:10224000190640911A0650911B068FBFB901CA01A9
:1022500008959FB7F8942091140630911506409187
:1022600016065091170686B5A89B06C08F3F21F031
:102270002F5F3F4F4F4F5F4F9FBF542F432F322F42
:102280002227280F311D411D511D82E0220F331FCF
:10229000441F551F8A95D1F7B901CA010895EF92DD
:1022A000FF920F931F93CF93DF937B018C01D1DFBC
:1022B000EB010DC0CEDF6C1B7D0B685E7340D0F36D
:1022C0000894E108F10801091109C851DC4FE11433
:1022D000F1040105110571F7DF91CF911F910F9165
:1022E000FF90EF900895019739F0880F991F880F9C
:1022F000991F02970197F1F70895789484B5826049
:1023000084BD84B5816084BD85B5826085BD85B599
:10231000816085BDEEE6F0E0808181608083E1E848
:10232000F0E0808182608083808181608083E0E84A
:10233000F0E0808181608083E1EBF0E08081846067
:102340008083E0EBF0E0808181608083EAE7F0E069
:1023500080818460808380818260808380818160CD
:1023600080838081806880831092C1000895982FB7
:102370008E3008F09E5097708091BB018295880F37
:10238000880F807C892B80937C0080917A00806408
:1023900080937A0080917A0086FDFCCF20917800AE
:1023A00040917900942F80E030E0282B392BC9012F
:1023B0000895482F50E0CA0186569F4FFC01249192
:1023C0004A575F4FFA0184918823C1F0E82FF0E06B
:1023D000EE0FFF1FE859FF4FA591B491662341F41A
:1023E0009FB7F8948C91209582238C939FBF08957A
:1023F0009FB7F8948C91822B8C939FBF0895482FA0
:1024000050E0CA0182559F4FFC012491CA018656B3
:102410009F4FFC0134914A575F4FFA0194919923E1
:1024200009F440C0222331F1233021F4809180004F
:102430008F7705C0243031F4809180008F7D8093A8
:10244000800018C0213019F484B58F7704C0223081
:1024500021F484B58F7D84BD0DC0263021F4809198
:10246000B0008F7705C0273029F48091B0008F7DB0
:102470008093B000E92FF0E0EE0FFF1FEE58FF4F02
:10248000A591B491662341F49FB7F8948C9130954F
:1024900083238C939FBF08959FB7F8948C91832BCF
:1024A0008C939FBF0895682F70E0CB0182559F4F9A
:1024B000FC012491CB0186569F4FFC0144916A5741
:1024C0007F4FFB019491992319F420E030E038C04C
:1024D000222331F1233021F4809180008F7705C0D1
:1024E000243031F4809180008F7D8093800018C06B
:1024F000213019F484B58F7704C0223021F484B5DB
:102500008F7D84BD0DC0263021F48091B0008F777F
:1025100005C0273029F48091B0008F7D8093B000F2
:10252000892F90E0880F991F84589F4FFC01A59137
:10253000B4918C9120E030E0842311F021E030E070
:10254000C9010895629FD001739FF001829FE00D41
:10255000F11D649FE00DF11D929FF00D839FF00D22
:10256000749FF00D659FF00D9927729FB00DE11DCE
:10257000F91F639FB00DE11DF91FBD01CF011124AB
:10258000089597FB092E07260AD077FD04D049D07D
:1025900006D000201AF4709561957F4F0895F6F7E4
:1025A000909581959F4F0895A1E21A2EAA1BBB1BFF
:1025B000FD010DC0AA1FBB1FEE1FFF1FA217B3070F
:1025C000E407F50720F0A21BB30BE40BF50B661F25
:1025D000771F881F991F1A9469F7609570958095E9
:1025E00090959B01AC01BD01CF01089597FB092E89
:1025F00005260ED057FD04D0D7DF0AD0001C38F4D2
:1026000050954095309521953F4F4F4F5F4F08951E
:10261000F6F790958095709561957F4F8F4F9F4FFE
:102620000895AA1BBB1B51E107C0AA1FBB1FA61719
:10263000B70710F0A61BB70B881F991F5A95A9F76B
:1026400080959095BC01CD010895EE0FFF1F059078
:10265000F491E02D0994F999FECF92BD81BDF89ACD
:10266000992780B50895262FF999FECF1FBA92BDFC
:1026700081BD20BD0FB6F894FA9AF99A0FBE019663
:062680000895F894FFCF5D
:102686005B43204D00204800204600205000204497
:10269600005D2A007B433A436F6E74726F6C486527
:1026A6006174657220737461727465647D2A000AB0
:1026B600090B0C015B433A30207330303030303038
:1026C600302B3F3F2E3F20642B302E303020703091
:1026D600302E302071302E30207730302069303067
:1026E600302D30302E3020613030302B30302E30CF
:1026F600207530303030303030305D2A20002143B4
:102706003D00000000000000000000000000000086
:1027160000000000000000000000000000000000B3
:1027260000000000000000000000000000000000A3
:10273600000000000000000000000301030706057A
:102746000408000000003B0E880EA00EDC0D080EEB
:042756002F0EEE0D47
:00000001FF
