:1000000065C000000C94BE100C94EB1087C000007B
:1000100085C0000083C0000081C000000C94371030
:100020007DC000007BC0000079C0000077C00000E8
:1000300075C0000073C0000071C000006FC00000F8
:100040000C941E116BC000000C94030D67C00000DF
:1000500065C0000063C0000061C000005FC0000018
:100060005DC000005BC0000000000000240027000D
:100070002A0000000000250028002B0000000000DE
:1000800023002600290004040404040404040202DA
:100090000202020203030303030301020408102007
:1000A0004080010204081020010204081020000012
:1000B0000007000201000003040600000000000029
:1000C00000008F002A02B008E808990E11241FBE14
:1000D000CFEFD8E0DEBFCDBF11E0A0E0B1E0ECE1B2
:1000E000F7E202C005900D92A23DB107D9F716E0E4
:1000F000A2EDB1E001C01D92AC31B107E1F710E013
:10010000CCECD0E004C02297FE010E947213C23CE6
:10011000D107C9F70E9418110C948C1371CF82ED8E
:1001200091E04CE251E060E070E00C948B0B809128
:100130002F0161E00E9424128091300161E00E9451
:1001400024128091310161E00E94241280913201D9
:1001500061E00C942412FF920F931F93182FE82F45
:10016000F0E0E25DFE4FF08000E016C00E94CE0895
:100170008117F9F082ED91E00E949C0B8823C9F46D
:10018000F5CF0E94CE088117E9F082ED91E00E9440
:100190009C0B8823B9F4F5CF0E94CE088117A9F0F3
:1001A0008F2D61E00E944A1282ED91E00E946D0B5A
:1001B000DDCF8F2D60E00E944A1282ED91E00E9417
:1001C0006D0BDFCF0F5F033039F71F910F91FF9059
:1001D0000895DC018FE76F3F780709F450C0599606
:1001E0008C9159978A3031F557964C915797E42F57
:1001F000F0E03D96EE0FFF1FEA0FFB1F9E968D91DC
:100200009C919F9720813181821B930B9F969C9399
:100210008E939E974F5F57964C9357974A3019F499
:1002200057961C92579759968C9159978150599689
:100230008C9359979E968D919C919F97860F971FAF
:100240009F969C938E939E9758968C915897E82FE3
:10025000F0E03D96EE0FFF1FEA0FFB1F71836083F6
:100260008F5F58968C9358978A3019F458961C9241
:10027000589759968C9159978F5F59968C930895FA
:100280000F931F93182F092F0E94BC0C882351F045
:10029000812F902F0E94B90C812F902F64E440E0B1
:1002A0000E947A0C1F910F910895EADF68EE73E0C7
:1002B00080E090E00C949A11FF920F931F93082F07
:1002C000F92E0E94BC0C882319F42FEF3FE717C0CA
:1002D000802F9F2D0E94B90C802F9F2D6EEB40E048
:1002E0000E947A0C802F9F2D0E942D0C182F802F9A
:1002F0009F2D0E942D0C382F20E0210F311DC901A8
:100300001F910F91FF900895CF93DF93EC010E960C
:100310000E949C0B882339F0CE01CEDFBC01CE01B8
:1003200058DFCE01ADDFDF91CF9108950F931F937A
:100330008C010E94E20BC8010E9648EE53E060E08B
:1003400070E021E00E94790BF801178A108E118E5F
:1003500017A616A61F910F9108950F931F9305EFEF
:1003600015E0C80160E071E00E940A0FBFD6682F57
:10037000C8014AE050E00E94B30FC80165E071E097
:100380000E940A0FAFD6682FC8014AE050E00E94D1
:10039000B30FC80168E071E00E940A0F9FD6682F72
:1003A000C8014AE050E00E94B30FC8016BE071E061
:1003B0000E940A0F8FD6682FC8014AE050E00E94C1
:1003C000B30FC8016EE071E00E940A0F7FD6682F5C
:1003D000C8014AE050E00E94B30FC80161E171E03A
:1003E0000E940D101F910F9108951F93FC01118D14
:1003F000112319F42FEF3FE719C066A577A58827C9
:1004000077FD8095982F24E630E040E050E00E9490
:10041000ED12212F30E044E0220F331F4A95E1F71F
:10042000442737FD4095542F0E944113C9011F9165
:1004300008959C01181619061CF08BEF9FEF02C05F
:1004400085E090E0820F931F6AE070E00E940C1339
:10045000CB0108958BED91E060E168DF8AEF94E0D5
:1004600048E95AE360E070E021E00E94790B83E004
:1004700095E048E853E160E070E00E948B0B80E07B
:1004800003C0EA3349F08F5FE82FF0E0EC5CFE4FE9
:10049000E081EE23B1F780E08F5F80930C0580E070
:1004A00003C0E33749F08F5FE82FF0E0EC5CFE4FCC
:1004B000E081EE23B1F780E08F5F80930D0580E04F
:1004C00003C0EA3249F08F5FE82FF0E0EC5CFE4FAA
:1004D000E081EE23B1F780E080930E0590E003C049
:1004E000EB3249F09F5FE92FF0E0EC5CFE4FE081DA
:1004F000EE23B1F790E090930F05892F03C0E0320F
:1005000049F08F5FE82FF0E0EC5CFE4FE081EE23D6
:10051000B1F780E0891B8093100580E003C0E436CA
:1005200049F08F5FE82FF0E0EC5CFE4FE081EE23B6
:10053000B1F780E0982F9F5F90931105892F03C03A
:10054000E03249F08F5FE82FF0E0EC5CFE4FE08195
:10055000EE23B1F780E0891B8093120580E003C091
:10056000E03749F08F5FE82FF0E0EC5CFE4FE08170
:10057000EE23B1F780E0982F9F5F90931305892FAA
:1005800003C0E03249F08F5FE82FF0E0EC5CFE4FF3
:10059000E081EE23B1F780E0891B8093140580E0B1
:1005A00003C0E13749F08F5FE82FF0E0EC5CFE4FCD
:1005B000E081EE23B1F780E0982F9F5F90931505BF
:1005C000892F03C0E03249F08F5FE82FF0E0EC5C48
:1005D000FE4FE081EE23B1F780E0891B8093160582
:1005E00080E003C0E73749F08F5FE82FF0E0EC5C74
:1005F000FE4FE081EE23B1F780E0982F9F5F90934C
:100600001705892F03C0E03249F08F5FE82FF0E033
:10061000EC5CFE4FE081EE23B1F780E0891B809314
:10062000180580E003C0E93649F08F5FE82FF0E05D
:10063000EC5CFE4FE081EE23B1F780E0982F9F5FE6
:1006400090931905892F03C0ED3249F08F5FE82F91
:10065000F0E0EC5CFE4FE081EE23B1F780E0891B17
:1006600080931A05890F80931B05982F03C0E032F1
:1006700049F09F5FE92FF0E0EC5CFE4FE081EE2354
:10068000B1F790E0981B90931C0580E003C0E13621
:1006900049F08F5FE82FF0E0EC5CFE4FE081EE2345
:1006A000B1F780E0982F9F5F90931D05892F03C0BD
:1006B000EB3249F08F5FE82FF0E0EC5CFE4FE08119
:1006C000EE23B1F780E0891B80931E05890F80938C
:1006D0001F05982F03C0E03249F09F5FE92FF0E03B
:1006E000EC5CFE4FE081EE23B1F790E0981B909315
:1006F000200580E003C0E53749F08F5FE82FF0E088
:10070000EC5CFE4FE081EE23B1F780E0982F9F5F15
:1007100090932105892F03C0ED3549F08F5FE82FB5
:10072000F0E0EC5CFE4FE081EE23B1F780E0891B46
:100730008093220589E295E040ED57E060E070E0AB
:10074000EAD784E395E048EE53E060E070E021E012
:10075000D0C79F92AF92BF92CF92DF92EF92FF925B
:100760000F931F93CF93DF930E946611C62EB72E6F
:10077000A82E992E83D5D82E8BED91E036DEEC0194
:100780002FE78F3F920709F482C0EC2CFB2C0A2D37
:10079000192DDD2011F0DD24D39480911F028823D0
:1007A00079F4DD20A1F5E0920B02F0920C020093A7
:1007B0000D0210930E02D0931002C0930F0202C0DC
:1007C000DD2029F580910B0290910C02A0910D0281
:1007D000B0910E02A8019701281B390B4A0B5B0B45
:1007E000CA01B90120E63AEE40E050E00E94411310
:1007F000309312022093110280910F029091100207
:10080000AE01481B590B5093140240931302809180
:100810002002882379F4DD2089F1E0921502F0921C
:1008200016020093170210931802D0931A02C09375
:10083000190202C0DD2011F180911502909116027B
:10084000A0911702B0911802E81AF90A0A0B1B0BC3
:10085000C801B70120E63AEE40E050E00E944113A3
:1008600030931C0220931B028091190290911A026E
:10087000C81BD90BD0931E02C0931D0210921F02F9
:10088000DD2019F481E080931F02D0922002DF91D5
:10089000CF911F910F91FF90EF90DF90CF90BF907D
:1008A000AF909F900895E091B801E33051F0F0E0EF
:1008B000E458FE4F10828CE791E061D483E080938E
:1008C000B801089555D484E191E059D48BED91E0BD
:1008D000ECDC52D52CDC41CD1F9360D4182F88233B
:1008E00029F004D4181711F0812FEBD3109332059F
:1008F0001F9108950F931F93CF93DF93082FEB0160
:10090000142F8091B80190E0C5970CF0CCDF609176
:10091000B801E62FF0E0E458FE4F00836F5F60936C
:10092000B80170E064587E4F1066CE0146E0212F7A
:10093000F6D59091B801980F9093B801DF91CF91BF
:100940001F910F910895FF920F931F938B01F42E27
:1009500070DD0C5C1E4FB8014F2D21E1E0D51F91D9
:100960000F91FF9008958F929F92AF92BF92CF9276
:10097000DF92EF92FF920F931F93982EF8940ED46C
:10098000182F5FD47894E0910C05F0E0EC5CFE4FFA
:10099000105D108390910D05E92FF0E0EC5CFE4FA7
:1009A00020E030E0482F50E0CA01022E02C09595A9
:1009B00087950A94E2F78170805D81932F5F3F4FA6
:1009C0002730310589F78BED91E00FDD2FE78F3F61
:1009D000920739F060910F054091100570E050E0EA
:1009E000B2DF6091110570E06C5C7E4F8091F8047D
:1009F0009091F9044091120522E191D5609117057B
:100A000070E06C5C7E4F8091F6049091F704409109
:100A1000180520E084D56091190570E06C5C7E4F6C
:100A2000809111029091120240911A0520E077D531
:100A300060911B0540911C05809113029091140256
:100A400070E050E080DF60911D0570E06C5C7E4FCF
:100A500080911B0290911C0240911E0520E05FD501
:100A600060911F054091200580911D0290911E020A
:100A700070E050E068DF59D36091130570E06C5C62
:100A80007E4F4091140521E04AD534D3609115057D
:100A900070E06C5C7E4F4091160521E040D50E94CD
:100AA00066117B018C0160912705709128052091CA
:100AB0002305309124054091250550912605D80144
:100AC000C701821B930BA40BB50B04C080509C453F
:100AD000A642B540B62EA72E822EF32FD42EC52EB9
:100AE0006F5F7F4F2050344A494D5A4F8130ECE5BB
:100AF0009E07E6E2AE07E5E0BE0744F7B0922705A1
:100B0000A092280580922305F0932405D092250514
:100B1000C09226056091210570E06C5C7E4F40918B
:100B2000220546508B2D9A2D20E0F9D48091230583
:100B300090912405A0912505B0912605E81AF90A9F
:100B40000A0B1B0BC801B70128EE33E040E050E070
:100B50000E944113122F032FF42EE52E622F732FC4
:100B6000842F952F2CE330E040E050E00E944113A9
:100B7000DC01CB01209121056091220570E0620F1C
:100B8000711D6E5C7E4F42E020E0C9D4612F702F52
:100B90008F2D9E2D2CE330E040E050E00E94411369
:100BA000122F032FF42EE52E622F732F842F952FF3
:100BB0002CE330E040E050E00E944113DC01CB0127
:100BC000209121056091220570E0620F711D605D2A
:100BD0007E4F42E020E0A3D4612F702F8F2D9E2DF9
:100BE0002CE330E040E050E00E944113DA01C901FB
:100BF000209121056091220570E0620F711D625DF8
:100C00007E4F42E020E08BD480910E05992011F4B4
:100C1000E82F12C0E82FF0E0EC5CFE4F9082982F96
:100C20009F5F2AE2921639F0E92FF0E0EC5CFE4F6C
:100C30008AE280839F5FE92FF0E0EC5CFE4F108238
:100C400084E391E09CD283E095E047D51092330194
:100C50001F910F91FF90EF90DF90CF90BF90AF90DA
:100C60009F908F900895813378F0853340F08F33D3
:100C700019F0833449F402C08FE375CE6ECB8053F4
:100C80006ADA2ADE83E66FCE0895DF92EF92FF9252
:100C90000F931F93CF93DF938BED91E035DB59DDFD
:100CA000F6D27CD2082F22D2002371F0081761F00F
:100CB000833031F4013021F44EDA0EDE82E702C0D7
:100CC0000BDE82E650DE0CC080913205081741F041
:100CD000002311F081E301C080E345DE009332057B
:100CE0005DD2082FFFD1D82E882301F10430F1F412
:100CF0000E9466117B018C0184E053D2E61AF70A48
:100D0000080B190B6D2D70E080E090E020E63AEEC4
:100D100040E050E00E94ED126E157F0580079107BC
:100D20002CF481E018DAD8DD88E61DDE8BED91E049
:100D30005CDB7C012FE78F3F920709F47FC08AEFCD
:100D400094E0FAD4882309F479C098D2282F81112D
:100D500021E08091F4049091F504820F911D90930D
:100D6000F5048093F4048091F3048F5F8093F3047F
:100D70008091F20490E08C01000F111F080F191FE1
:100D80000F5D1D4FF80120838BED91E02EDBF80104
:100D900092838183C091F404D091F5043091F304DF
:100DA0008CE390E0AC01C49FC001C59F900DD49F1F
:100DB000900D1124632F70E00E940C137093F704C0
:100DC0006093F6048091F10490E0FC01EE0FFF1FA8
:100DD000E80FF91FEF5DFD4F81819281E81AF90A52
:100DE000F092F904E092F8048091F2048F5F80930E
:100DF000F204803F11F41092F2042091F2048091E9
:100E0000F1042817D9F4822F90E0FC01EE0FFF1FA8
:100E1000E80FF91FEF5DFD4F8081C81BD109D0930A
:100E2000F504C093F404822F8F5F8093F104803F18
:100E300011F41092F10431503093F304A1D013DF78
:100E4000BFD1982F811191E080913305891741F02E
:100E500090933305992311F48EE601C085E683DD76
:100E60003DD1813001F1823001F534D1F82E2ED1FF
:100E7000082FFF20E1F08823D1F000D2882351F021
:100E8000202F30E080911B0290911C028217930763
:100E900074F00BC02F2D30E080911102909112025E
:100EA0008217930724F081E001C080E099D184E3A8
:100EB00095E042D4882359F060E080913D05882375
:100EC00009F461E060933D058DE00E944A1283E0E1
:100ED00095E032D4882329F08091330181118AE290
:100EE00042DD89E295E028D4882309F441C08BEDE6
:100EF00091E07BDA5FE78F3F950729F09ADABC0132
:100F000081E641E1F7DC6091F8047091F90482E632
:100F100042E1F0DC6091F6047091F70483E640E072
:100F2000E9DC3CD1682F84E670E040E0E3DC48D1A6
:100F3000682F85E670E040E0DDDCA0D1682F86E612
:100F400070E040E0D7DCF1D0BC0187E641E0D2DCC4
:100F5000D1D0BC0188E641E0CDDCA5DC89E295E09A
:100F600040E65AEE60E070E0B2D389E295E0B5D396
:100F7000DF91CF911F910F91FF90EF90DF90089537
:100F80000F931F930AE011E07DC085EF95E08BD6AB
:100F9000982F20913E05243409F43FC0253440F4B5
:100FA0002130A1F0213060F0223009F06BC016C072
:100FB000283499F1203589F1263409F063C02DC019
:100FC000813209F05FC010933E055CC0833411F09C
:100FD00080E001C082E080933E0554C08434C1F0BB
:100FE000853458F4813308F44BC0853370F08F3367
:100FF00061F0833409F044C008C0883449F080357A
:1010000039F0863409F03CC003C010923E0541C05F
:1010100090933E0510923F0535C0892F80538A304A
:1010200050F480913F05809F802D11248053890FBB
:1010300080933F0527C09D3021F09A3011F0913206
:10104000F9F4263471F0273418F42434A9F411C0CB
:10105000283419F0203581F408C080913F052CD048
:101060000BC080913F0523D007C080913F051AD067
:1010700003C080913F0511D010923E0593E409C052
:1010800010923E0585EF95E0E2D5892B09F07DCFE2
:1010900090E0892F1F910F910895682F84E090E0D0
:1010A0000C947E13682F83E090E00C947E13682FDD
:1010B00082E090E00C947E13682F85E090E00C9421
:1010C0007E13682F81E090E00C947E1384E090E022
:1010D0000C94761383E090E00C94761382E090E019
:1010E0000C94761385E090E00C94761381E090E008
:1010F0000C9476138FE00E940212AA2797FDA09508
:10110000BA2FBC01CD012DEE3FEF4FEF5FEF0E94F4
:10111000ED126959714B8F4F9F4F28EE33E040E03D
:1011200050E00E944113C90108958EE00E9402120E
:10113000AA2797FDA095BA2FBC01CD012CEB3EEF5D
:101140004FEF5FEF0E94ED12635F7A478A4F9F4F28
:1011500028EE33E040E050E00E944113C9010895B9
:1011600080E495E04CE251E060E070E021E0C1C233
:1011700085EF95E040E051EE60E070E080C4CF93F1
:10118000DF93EC0180E495E0D7D28823D9F385EF93
:1011900095E0BE0142D7DF91CF91089580914A0535
:1011A0000895E82FF0E0EE0FFF1FEE0FFF1FE55B45
:1011B000FA4F2081318142815381B901CA010895DA
:1011C0008091610590E0823008F091E0892F0895C8
:1011D00088E695E044E650E060E070E021E089C2F6
:1011E000982F809167059817A1F090936705992330
:1011F00041F081E161E00E94241281E161E00C9400
:101200004A1281E160E00E94241281E160E00C94C6
:101210004A120895809166058F3F71F481E10E9422
:10122000021220E0853691050CF021E0822F211179
:1012300081E08093660503C0811181E0282F822F11
:1012400008951F93909149058091610520E030E059
:10125000823010F021E030E044E0220F331F4A9545
:10126000E1F7192F1F7E122B80916705882311F457
:10127000D1DF81111064812F1F910895E2DF90E08A
:1012800055E0959587955A95E1F783700895EF920B
:10129000FF920F931F930E9466117B018C0188E6D9
:1012A00095E04AD28823B9F1F89480915F05909136
:1012B0006005892B09F05BC080914A05882309F4F9
:1012C00056C0E0924B05F0924C0500934D051093EB
:1012D0004E051092490510924A051092610520E6CC
:1012E00030EF4FEF5FEFE20EF31E041F151FE09289
:1012F0006205F0926305009364051093650580EA2A
:101300009FE0A0E0B0E0E80EF91E0A1F1B1F8FEF60
:10131000809366057894F8948091620590916305B6
:10132000A0916405B0916505A8019701281B390BB0
:101330004A0B5B0BDA01C901815A9F40A040B040C3
:1013400084F080E690EFAFEFBFEFE80EF91E0A1FC2
:101350001B1FE0926205F0926305009364051093F1
:10136000650578941F910F91FF90EF90089510926A
:10137000600510925F05CECFA9D7605A7F408040AC
:101380009040609362057093630580936405909329
:10139000650580E06FEC79E042E050E0CCC6CF928A
:1013A000DF92EF92FF920F931F93CF93DF9310E0A2
:1013B000C0E0D0E071E0C72ED12CE12CF12CFE0171
:1013C000E654FE4F80810E949E12892B61F4D70162
:1013D000C6010C2E04C0880F991FAA1FBB1F0A94B8
:1013E000D2F7182B0CC0D701C6010C2E04C0880FF1
:1013F000991FAA1FBB1F0A94D2F780951823219624
:10140000C630D105E1F662D79B01AC018091490558
:10141000811781F110934905A0914A0560E070E0C1
:10142000E12FF0E0EF70F070C1E0D0E0CE01062EC9
:1014300002C0880F991F0A94E2F7E817F90719F418
:10144000A62FAF5F05C06F5F7F4F6430710571F7E6
:1014500080914A058A1771F0EA2FF0E0EE0FFF1F26
:10146000EE0FFF1FE55BFA4F2083318342835383E6
:10147000A0934A0514FF1BC08091620590916305FB
:10148000A0916405B091650579018A01E81AF90A0D
:101490000A0B1B0BD801C701805D9740A040B040EC
:1014A00014F482E001C081E0809361051BC080914B
:1014B000620590916305A0916405B091650579017D
:1014C0008A01E81AF90A0A0B1B0BD801C701805DD3
:1014D0009740A040B04074F010926105205A3F4000
:1014E000404050402093620530936305409364056B
:1014F0005093650580915F059091600501969093EA
:10150000600580935F058FEF80936605DF91CF9133
:101510001F910F91FF90EF90DF90CF9008952F9241
:101520003F924F925F926F927F928F929F92AF9273
:10153000BF92CF92DF92EF92FF920F931F93DF93B0
:10154000CF9300D000D0CDB7DEB7FC015B01842E75
:10155000E22EFF24C701807290709A83898325FD53
:1015600003C06BE2C62E02C050E2C52EF7FF05C0D5
:10157000F095E195FF4F4DE2C42EC7018F7090703A
:10158000892B11F4992404C03FE0932E9222939466
:10159000882D90E0D501A80FB91FBC83AB8340E034
:1015A000DD2401E010E0292C332420E1422E512CCF
:1015B0004E205F203C010894610871083DC02B81DA
:1015C0003C81215030403C832B838D2D90E00215CF
:1015D000130529F42EE2AB81BC812C9329C0A9818B
:1015E000BA81AB2B71F0309761F49D1450F4AB814C
:1015F000BC81CC92B0E2CB16E1F04F5F80E2C82E06
:1016000018C04114510439F08615970521F4AB81B7
:10161000BC81CC920DC0CF016AE070E0FDD7805D47
:10162000AB81BC818C93CF016AE070E0F5D7FB0100
:101630004F5FD3940F5F1F4FD81408F4C0CF542FBF
:10164000EF2B69F0F50190E029E307C0808180531A
:10165000893008F420839F5F31969815B8F3E6FE31
:101660001EC04815E0F4A82DB0E0A41BB109AA0DD6
:10167000BB1D20E030E007C0F501E20FF31F8D91A4
:1016800080832F5F3F4F2417B8F306C0F501E40FA6
:10169000F11D80834F5F01C080E24815B8F3852FAC
:1016A0000F900F900F900F90CF91DF911F910F919E
:1016B000FF90EF90DF90CF90BF90AF909F908F9072
:1016C0007F906F905F904F903F902F900895FC0116
:1016D000458356836783708708950F931F938C010A
:1016E000F5D5F80161837283838394831F910F91F1
:1016F00008950F931F938C01FC012083458356832B
:1017000067837087E3D5F801618372838383948351
:101710001F910F9108950F931F938C01FC01458336
:10172000568367837087D2D5F80161837283838380
:1017300094831F910F910895EF92FF920F931F933F
:10174000CF93DF93EC01C2D5E980FA800B811C8135
:101750002D813E814F8158856E197F09800B910B39
:10176000621773078407950710F480E017C02115EE
:1017700031054105510519F08881882331F0A6D53E
:1017800069837A838B839C8308C02E0D3F1D401F85
:10179000511F29833A834B835C8381E0DF91CF9192
:1017A0001F910F91FF90EF900895FC01138615860D
:1017B000148687E090E012863197009711F0019728
:1017C000FACF0895DC01862F90E0FC01E656FF4F2A
:1017D000E491EC938A579F4FFC016491E62FF0E06F
:1017E000EE0FFF1FE458FF4F8591949112969C9342
:1017F0008E931197CD01D9CFDF92EF92FF920F9385
:101800001F93FC01E08001811281F894F80181812D
:101810008E2981838281DE2CD0948D21828383E086
:1018200090E0ACD5F80181818D21818389E090E041
:10183000A5D5F8010081789485E390E09FD580E0FC
:1018400010E0FF240E211F21012B09F081E01F91E0
:101850000F91FF90EF90DF900895EF92FF920F931A
:101860001F93CF93DF937C0101E010E0C0E0D0E054
:10187000C701C2DF8111102B000F2196C830D1059E
:10188000B9F7812FDF91CF911F910F91FF90EF90CA
:1018900008951F93CF93DF93FC011081C181D28102
:1018A000912F909560FF11C0F8948A8189238A83D3
:1018B0008981812B89838AE090E060D58A81812BA0
:1018C0008A83789487E390E010C0F8948A81892312
:1018D0008A838981812B898381E490E04FD58A8135
:1018E000812B8A83789485E090E048D5DF91CF9171
:1018F0001F910895CF92DF92EF92FF920F931F9363
:10190000CF93DF938C01E42EFF24F394C0E0D0E06A
:10191000C62EDD2460E08F2D90E08C219D21892B47
:1019200009F061E0C801B5DFFF0C2196C830D10590
:1019300089F7EE20A9F4F894D8011196ED91FC9165
:10194000129791818C918095982391831196ED91B6
:10195000FC91129792818C91809598239283789430
:10196000DF91CF911F910F91FF90EF90DF90CF907B
:1019700008956CEC40E0BECFDF92EF92FF920F93A0
:101980001F93CF93DF93FC010081C181D281F89432
:101990008981D02ED0948D21898378941DE7E02E03
:1019A000FF24115039F182E090E0E8D4888190E082
:1019B0008E219F21892BA9F3F8948A818D218A8316
:1019C0008981802B8983789484EF91E0D7D4F8942F
:1019D00089818D21898380E590E0D0D4888110E0D1
:1019E00090E0E822F922EF2809F411E0789484EAE3
:1019F00091E0C4D4812FDF91CF911F910F91FF907F
:101A0000EF90DF9008951F920F920FB60F9211245E
:101A10002F933F934F935F936F937F938F939F93F6
:101A2000AF93BF93EF93FF934091C600E091F10510
:101A3000F091F205CF01019660E870E0EDD59C01D0
:101A40008091F3059091F4052817390739F0EF5884
:101A5000FA4F40833093F2052093F105FF91EF9107
:101A6000BF91AF919F918F917F916F915F914F91B6
:101A70003F912F910F900FBE0F901F9018955F927E
:101A80006F927F928F929F92AF92BF92CF92DF928E
:101A9000EF92FF920F931F93CF93DF93EC015A01C4
:101AA0006B0181E4A81682E4B8068FE0C80680E0E6
:101AB000D80608F06FC060E874E88EE190E0A601F7
:101AC0009501BDD539014A01089461087108810862
:101AD00091089694879477946794A40193012F5F5B
:101AE0003F4F4F4F5F4F74E0220F331F441F551F6E
:101AF0007A95D1F760E074E284EF90E0A0D5CA0156
:101B0000B9012FEF30E040E050E067D5A601950124
:101B100096D58FEF90E0821B930B181619061CF4D4
:101B2000522E509402C0522E539460E079E08DE31F
:101B300090E0A601950183D52150304040405040AF
:101B400056954795379527952F5F3F4F4F4F5F4FDE
:101B500093E0220F331F441F551F9A95D1F760E081
:101B600074E284EF90E06BD5CA01B9012FEF30E049
:101B700040E050E032D5A601950161D58FEF90E0AD
:101B8000821B930B1816190614F4209501C02F5FC1
:101B90002515E8F4E885F98581E090E00A8802C01F
:101BA000880F991F0A94E2F7808360E079E08DE363
:101BB00090E0A601950143D521503040404050406F
:101BC0005695479537952795822F232F05C0E88591
:101BD000F9851082862D272DEC81FD812083EE81F1
:101BE000FF818083EA85FB85208141E050E0CA01C6
:101BF0000E8402C0880F991F0A94E2F7282B2083D5
:101C0000EA85FB852081CA010F8402C0880F991FD5
:101C10000A94E2F7282B2083EA85FB8580810888D7
:101C200002C0440F551F0A94E2F7842B8083DF9192
:101C3000CF911F910F91FF90EF90DF90CF90BF90C9
:101C4000AF909F908F907F906F905F900895DC0190
:101C50001296ED91FC911397E058FF4F819191916D
:101C600080589F4F20813181821B930B60E870E088
:101C7000D3C4DC011296ED91FC911397EE57FF4F00
:101C80002081318192918291E058F0408217930730
:101C900019F42FEF3FEF05C0E20FF31F8081282FCB
:101CA00030E0C9010895CF93DF93DC011296ED91E6
:101CB000FC911397EF01CE57DF4F48815981E058CF
:101CC000FF4F80819181E058F0408417950719F407
:101CD0002FEF3FEF0BC0E40FF51F2081CA010196E3
:101CE00060E870E099D49983888330E0C901DF917E
:101CF000CF910895DC011296ED91FC911397EE5768
:101D0000FF4F80819181929382930895FC01A08579
:101D1000B18521898C9190E0022E02C0959587951E
:101D20000A94E2F780FFF6CF0484F585E02D608306
:101D3000089584EC91E09093F6058093F50581E792
:101D400095E09093F8058093F70585EC90E09093EB
:101D5000FA058093F90584EC90E09093FC0580935C
:101D6000FB0580EC90E09093FE058093FD0581ECEF
:101D700090E0909300068093FF0586EC90E09093AE
:101D800002068093010684E08093030683E080933B
:101D9000040687E08093050685E08093060681E0CF
:101DA0008093070608950F931F93CF93DF938C01C1
:101DB000EB0109C02196D801ED91FC910190F081D1
:101DC000E02DC801099568816623A1F7DF91CF91C5
:101DD0001F910F910895EF92FF920F931F93CF934E
:101DE000DF938C017B01EA010CC0D7016D917D016D
:101DF000D801ED91FC910190F081E02DC801099589
:101E00002197209791F7DF91CF911F910F91FF902C
:101E1000EF900895DC01ED91FC910280F381E02DBB
:101E2000099508952F923F924F925F926F927F9201
:101E30008F929F92AF92BF92CF92DF92EF92FF92DA
:101E40000F931F93DF93CF93CDB7DEB7A0970FB655
:101E5000F894DEBF0FBECDBF1C016A017B014115A6
:101E600051056105710541F440E350E060E070E028
:101E700020E030E089D051C0882499245401422EBA
:101E800055246624772401E010E00C0F1D1F080D77
:101E9000191DC701B601A3019201D1D3F8016083D6
:101EA0000894811C911CA11CB11CC701B601A3019F
:101EB0009201C5D3C901DA016C017D01C114D104BD
:101EC000E104F10401F781E0E82EF12CEC0EFD1E97
:101ED000E80CF91C3E010894611C711CD501C40179
:101EE0000197A109B1096C01C818D90813C0F601FE
:101EF000EE0DFF1D40814A3010F4405D01C0495C89
:101F000050E060E070E0C10120E030E03DD0089496
:101F1000E108F1086E147F0451F7A0960FB6F8940B
:101F2000DEBF0FBECDBFCF91DF911F910F91FF900C
:101F3000EF90DF90CF90BF90AF909F908F907F9069
:101F40006F905F904F903F902F900895DC01211586
:101F5000310541F4ED91FC910190F081E02D642F69
:101F6000099508955FCFEF92FF920F931F939A0107
:101F7000E62EFF2400E010E0B801A701E7DF1F9183
:101F80000F91FF90EF900895EF92FF920F931F93A0
:101F9000CF93DF93EC017A018B012115310541F4D8
:101FA000E881F9810190F081E02D642F099519C035
:101FB0002A303105A9F477FF0FC04DE250E060E010
:101FC00070E020E030E0E0DF10950095F094E094C0
:101FD000E11CF11C011D111DCE01B801A7012AE071
:101FE00021DFDF91CF911F910F91FF90EF90089526
:101FF0000F931F938C014DE050E060E070E020E013
:1020000030E0C2DFC8014AE050E060E070E020E06C
:1020100030E0BADF1F910F9108950F931F938C0149
:10202000F9DEC801E5DF1F910F910895813041F07D
:10203000813018F08230D1F409C010926E000895FA
:1020400080916F008D7F80936F0008958091700064
:102050008D7F8093700081E08093B0008091B1000B
:10206000887F84608093B1001092B30008951F921E
:102070000F920FB60F9211242F933F934F935F93BC
:102080006F937F938F939F93AF93BF93EF93FF9340
:102090008091080690910906A0910A06B0910B065E
:1020A0000097A105B10551F1E0910C06F0910D06E4
:1020B000808190910E0689278083809108069091F7
:1020C0000906A0910A06B0910B06181619061A0601
:1020D0001B0604F58091080690910906A0910A0656
:1020E000B0910B060197A109B1098093080690935E
:1020F0000906A0930A06B0930B060CC082E096DF97
:10210000E0910C06F0910D06908180910E0680956D
:1021100089238083FF91EF91BF91AF919F918F9120
:102120007F916F915F914F913F912F910F900FBED3
:102130000F901F901895823000F5E82FF0E0EE0F19
:10214000FF1FE15FF94F71836083882319F08130AD
:10215000A1F408C0809169008C7F842B8093690072
:10216000E89A089580916900440F551F440F551F48
:10217000837F842B80936900E99A08951F920F92C0
:102180000FB60F9211242F933F934F935F936F934A
:102190007F938F939F93AF93BF93EF93FF93809120
:1021A0000F0690911006892B29F0E0910F06F0910F
:1021B00010060995FF91EF91BF91AF919F918F917B
:1021C0007F916F915F914F913F912F910F900FBE33
:1021D0000F901F9018951F920F920FB60F92112417
:1021E0002F933F934F935F936F937F938F939F931F
:1021F000AF93BF93EF93FF938091110690911206D6
:10220000892B29F0E0911106F09112060995FF91B2
:10221000EF91BF91AF919F918F917F916F915F915E
:102220004F913F912F910F900FBE0F901F901895D7
:10223000AFD00E9462040E944506FDCF1F920F920C
:102240000FB60F9211242F933F938F939F93AF93C9
:10225000BF938091170690911806A0911906B0912E
:102260001A0630911B060196A11DB11D232F2D5F6B
:102270002D3720F02D570196A11DB11D20931B066F
:102280008093170690931806A0931906B0931A0628
:102290008091130690911406A0911506B091160630
:1022A0000196A11DB11D8093130690931406A0936F
:1022B0001506B0931606BF91AF919F918F913F91F4
:1022C0002F910F900FBE0F901F9018958FB7F89415
:1022D00020911706309118064091190650911A0660
:1022E0008FBFB901CA0108959FB7F89420911306D2
:1022F00030911406409115065091160686B5A89B9C
:1023000006C08F3F21F02F5F3F4F4F4F5F4F9FBF62
:10231000542F432F322F2227280F311D411D511DCD
:1023200082E0220F331F441F551F8A95D1F7B90150
:10233000CA010895EF92FF920F931F93CF93DF93FB
:102340007B018C01D1DFEB010DC0CEDF6C1B7D0B5F
:10235000685E7340D0F30894E108F108010911099F
:10236000C851DC4FE114F1040105110571F7DF914B
:10237000CF911F910F91FF90EF900895019739F041
:10238000880F991F880F991F02970197F1F70895F9
:10239000789484B5826084BD84B5816084BD85B540
:1023A000826085BD85B5816085BDEEE6F0E0808107
:1023B00081608083E1E8F0E08081826080838081B9
:1023C00081608083E0E8F0E0808181608083E1EBE0
:1023D000F0E0808184608083E0EBF0E080818160C8
:1023E0008083EAE7F0E0808184608083808182607E
:1023F0008083808181608083808180688083109267
:10240000C1000895982F8E3008F09E5097708091EB
:10241000B9018295880F880F807C892B80937C007E
:1024200080917A00806480937A0080917A0086FDA2
:10243000FCCF2091780040917900942F80E030E02B
:10244000282B392BC9010895482F50E0CA01865620
:102450009F4FFC0124914A575F4FFA0184918823D2
:10246000C1F0E82FF0E0EE0FFF1FE859FF4FA591F4
:10247000B491662341F49FB7F8948C912095822300
:102480008C939FBF08959FB7F8948C91822B8C9367
:102490009FBF0895482F50E0CA0182559F4FFC010D
:1024A0002491CA0186569F4FFC0134914A575F4FD1
:1024B000FA019491992309F440C0222331F1233089
:1024C00021F4809180008F7705C0243031F4809111
:1024D00080008F7D8093800018C0213019F484B56E
:1024E0008F7704C0223021F484B58F7D84BD0DC068
:1024F000263021F48091B0008F7705C0273029F471
:102500008091B0008F7D8093B000E92FF0E0EE0F56
:10251000FF1FEE58FF4FA591B491662341F49FB77A
:10252000F8948C91309583238C939FBF08959FB727
:10253000F8948C91832B8C939FBF0895682F70E043
:10254000CB0182559F4FFC012491CB0186569F4FB2
:10255000FC0144916A577F4FFB019491992319F430
:1025600020E030E038C0222331F1233021F4809183
:1025700080008F7705C0243031F4809180008F7DFA
:102580008093800018C0213019F484B58F7704C07F
:10259000223021F484B58F7D84BD0DC0263021F416
:1025A0008091B0008F7705C0273029F48091B0006A
:1025B0008F7D8093B000892F90E0880F991F8458F9
:1025C0009F4FFC01A591B4918C9120E030E08423D1
:1025D00011F021E030E0C9010895629FD001739F9E
:1025E000F001829FE00DF11D649FE00DF11D929FAF
:1025F000F00D839FF00D749FF00D659FF00D9927EE
:10260000729FB00DE11DF91F639FB00DE11DF91F11
:10261000BD01CF011124089597FB092E07260AD08A
:1026200077FD04D049D006D000201AF4709561954A
:102630007F4F0895F6F7909581959F4F0895A1E2F9
:102640001A2EAA1BBB1BFD010DC0AA1FBB1FEE1F2C
:10265000FF1FA217B307E407F50720F0A21BB30B77
:10266000E40BF50B661F771F881F991F1A9469F7F3
:1026700060957095809590959B01AC01BD01CF014F
:10268000089597FB092E05260ED057FD04D0D7DFFD
:102690000AD0001C38F450954095309521953F4F55
:1026A0004F4F5F4F0895F6F790958095709561951F
:1026B0007F4F8F4F9F4F0895AA1BBB1B51E107C04F
:1026C000AA1FBB1FA617B70710F0A61BB70B881FC2
:1026D000991F5A95A9F780959095BC01CD01089551
:1026E000EE0FFF1F0590F491E02D0994F999FECFAC
:1026F00092BD81BDF89A992780B50895262FF99942
:10270000FECF1FBA92BD81BD20BD0FB6F894FA9AD4
:0C271000F99A0FBE01960895F894FFCFCF
:10271C005B43204D00204800204600205000204400
:10272C00005D2A007B433A436F6E74726F6C486590
:10273C006174657220737461727465647D2A000A19
:10274C00090B0C015B433A302073303030303030A1
:10275C00302B3F3F2E3F20642B302E3030207030FA
:10276C00302E302071302E302077303020693030D0
:10277C00302D302E3020613030302B302E30207503
:10278C0030303030303030305D2A200021433D0075
:10279C00000000000000000000000000000000002D
:1027AC00000000000000000000000000000000001D
:1027BC00000000000000000000000000000000000D
:1027CC0000000000000000000301030706050408D8
:1027DC0000000000860ED30EEB0E270E530E7A0E61
:0227EC00390EA4
:00000001FF
